:100000000C9472000C9413010C9493000C949300C4
:100010000C9493000C9493000C9493000C94930014
:100020000C9493000C9493000C9493000C94930004
:100030000C9493000C9493000C9493000C949300F4
:100040000C9493000C9493000C9493000C949300E4
:100050000C9493000C9493000C9493000C949300D4
:100060000C9493000C9493000C9493000C949300C4
:100070000C9493000C9493000C9493000C949300B4
:100080000C9493000C9493000C9493000C949300A4
:100090000C9469010C9493000C9493000C949300BD
:1000A0000C9493000C9493000C9493000C94930084
:1000B0000C9493000C9493000C9493000C94930074
:1000C0000C9493000C9493000C9493000C94930064
:1000D0000C9493000C9493000C9493000C94930054
:1000E0000C94930011241FBECFEFD1E2DEBFCDBF31
:1000F00000E00CBF12E0A0E0B2E0E0E1F3E000E0DD
:100100000BBF02C007900D92A230B107D9F722E0D1
:10011000A2E0B2E001C01D92A830B207E1F70E9450
:10012000F6000C9486010C9400003A98429A3C9A8E
:100130000895329B16C02FEF89EF90E02150804048
:100140009040E1F700C00000329916C0449A2FEFAA
:1001500083E294EF215080409040E1F700C000001E
:1001600008952FEF89EF90E0215080409040E1F713
:1001700000C00000329B449808953B98439A08952C
:1001800033990AC02FEF89EF90E0215080409040D2
:10019000E1F700C00000339B08958FEE90E00E94CD
:1001A00054011092050210920402F6CF3F983D9A36
:1001B000459A089537990DC02FEF89EF90E02150AF
:1001C00080409040E1F700C0000037990CC0459A8C
:1001D00008952FEF89EF90E0215080409040E1F7A3
:1001E00000C00000379B08954598FDCF0E94BD00D8
:1001F0000E94D6000E9448010E945C010E94950066
:100200000E94C0000E94DA000E949900F9CF509825
:10021000589AE89AE9E6F0E08081816080837894DA
:100220003E9A469808951F920F920FB60F9211248E
:100230000BB60F922F933F934F935F936F937F93E0
:100240008F939F93AF93BF93EF93FF93489903C00E
:10025000469A489BFDCF3399F9CF46988FEF90E0AF
:100260000E945401FF91EF91BF91AF919F918F91A7
:100270007F916F915F914F913F912F910F900BBEA6
:100280000F900FBE0F901F9018953B98439A0895BA
:100290001092CD0087E68093CC0088E98093C90056
:1002A00086E08093CA000895E8ECF0E0908195FF25
:1002B000FDCF8093CE0008958091C800882344F438
:1002C000AEECB0E0E8ECF0E08C9180818823E4F3C0
:1002D00008951F921FB61F9211248F939F938091B0
:1002E000CE0090E090930702809306028130910542
:1002F00031F09F918F911F901FBE1F90189581E044
:1003000090E09093050280930402F3CFF894FFCF1E
:02031000670084
:040000030000018078
:00000001FF
