:100000000C9472000C9487010C9493000C94930050
:100010000C9493000C9493000C9493000C94930014
:100020000C9493000C9493000C9493000C94930004
:100030000C9493000C9493000C9493000C949300F4
:100040000C9493000C9493000C9493000C949300E4
:100050000C9493000C9493000C9493000C949300D4
:100060000C9493000C9493000C9493000C949300C4
:100070000C9493000C9493000C9493000C949300B4
:100080000C9493000C9493000C9493000C949300A4
:100090000C94B6030C9493000C9493000C9493006E
:1000A0000C9493000C9493000C9493000C94930084
:1000B0000C9493000C9493000C9493000C94930074
:1000C0000C9493000C9493000C9493000C94930064
:1000D0000C9493000C9493000C9493000C94930054
:1000E0000C94930011241FBECFEFD1E2DEBFCDBF31
:1000F00000E00CBF12E0A0E0B2E0E6E6F8E000E0CD
:100100000BBF02C007900D92A232B107D9F722E0CF
:10011000A2E2B2E001C01D92AC32B207E1F70E9448
:10012000AD000C9431040C9400005198599AE99A4E
:10013000E9E6F0E080818460808308958091220266
:1001400090912302019690932302809322020895B6
:100150000E945B030E945B03089578940E9447030A
:100160000E948C030E9495000E94270220E030E04C
:1001700040E050E06FEF70E081E090E00E945B03B0
:100180002FEF83ED90E3215080409040E1F700C0D5
:10019000000020E030E040E050E060E070E082E00D
:1001A00090E00E945B0381E090E0089580E48093FA
:1001B0007C00EAE7F0E086E08083808180688083CD
:1001C0000895819A829A0E94D6000895CF92DF9274
:1001D000EF92FF92CF93DF93EAE7F0E080818064B3
:1001E0008083A8E2B0E0C12CD12C7601E1E0F0E000
:1001F000C8E7D0E00EC048815981052E000C660B7F
:10020000770BC40ED51EE61EF71E1197109709F442
:100210005BC020B380B3AF0102C0440F551F2A95C5
:10022000E2F7842B80BB20B381B3BF0102C0660F0D
:10023000771F2A95E2F7862B81BB7FEF89EF90E04D
:10024000715080409040E1F700C0000080B320B3BF
:10025000AF0102C0440F551F8A95E2F7CA0180958D
:100260009095822380BB48E050E080B321B3BF016A
:1002700002C0660F771F8A95E2F7CB0180959095B3
:10028000822381BB7FE786E294E0715080409040FA
:10029000E1F700C0000020B381B3BF0102C0660FC8
:1002A000771F2A95E2F7862B81BB7FE786E294E0F1
:1002B000715080409040E1F700C00000415051096A
:1002C0004115510591F697CFC701B60128E230E0FC
:1002D00040E050E00E94FB032C36314054F48A98F1
:1002E00081E090E0DF91CF91FF90EF90DF90CF9091
:1002F00008958A9A80E090E0F5CF5098589AE89A4D
:10030000E9E6F0E080818160808378940895189513
:10031000EAE0F1E0808180688083EBE0F1E08081B9
:100320008068808380818062808380818F778083F2
:100330000895EAE0F1E0808180688083EBE0F1E0FD
:1003400080818F7D808380818062808380818068CE
:1003500080830895EAE0F1E090819068908328E03E
:1003600030E0EBE0F1E00CC090819F7790839081CA
:10037000906290838695215031092115310549F00D
:1003800090819F7D908380FFEFCF908190689083D4
:10039000EECFEBE0F1E080818F7D80838081806211
:1003A00080830895CF93C82F0E9488018C2F877077
:1003B00088680E94AA010E949901CF910895EF9246
:1003C000FF921F93CF93DF93D82FC92F0E948801EC
:1003D00080E40E94AA010E94990113EC0F2EFAE01A
:1003E000EF2EF12CF02D0E948801812F0E94AA018E
:1003F0008D2F9C2FB7010E94E703D62FC72FFC013A
:10040000EC5EFD4F80810E94AA010E94990111506B
:100410001F3B49F7DF91CF911F91FF90EF90089517
:100420001F93CF93DF93C82FD92F162F0E948801D7
:1004300080EC810F0E94AA01C050DE4F88810E948B
:10044000AA010E949901DF91CF911F910895EAE0DE
:10045000F1E0808180688083808180628083EBE02E
:10046000F1E080818068808380818062808387E082
:100470000E94D201089560E083E190E00E941002A2
:1004800061E083E090E00E94100262E086E090E08C
:100490000E94100263E087E090E00E94100208953D
:1004A00060E083E190E00E94100261E086E090E06D
:1004B0000E94100262E08DE090E00E94100263E072
:1004C0008BE090E00E941002089560E083E190E0EC
:1004D0000E94100261E083E090E00E94100262E05E
:1004E0008CE090E00E94100263E081E190E00E94C5
:1004F0001002089560E081E190E00E94100261E046
:1005000082E190E00E94100262E08FE090E00E94A1
:10051000100263E08CE090E00E941002089560E019
:1005200084E090E00E94100261E089E090E00E9487
:10053000100262E080E190E00E94100263E081E13D
:1005400090E00E941002089560E083E190E00E9434
:10055000100261E08EE090E00E94100262E081E013
:1005600090E00E94100263E083E090E00E9410029D
:100570000895882319F00E94500208950E94A40251
:10058000089560E08BE090E00E94100261E085E059
:1005900090E00E94100262E086E090E00E9410026B
:1005A00063E081E190E00E941002089560E08FE036
:1005B00090E00E94100261E087E090E00E9410024B
:1005C00062E088E090E00E94100263E081E190E048
:1005D0000E9410020895882319F00E94D6020895FF
:1005E0000E94C102089560E083E190E00E94100241
:1005F00061E083E190E00E94100262E087E090E019
:100600000E94100263E08DE090E00E9410020895C5
:1006100060E083E190E00E94100261E085E090E0FC
:100620000E94100262E08CE090E00E94100263E001
:1006300084E090E00E941002089560E080E190E084
:100640000E94100261E08FE090E00E94100262E0E0
:1006500083E090E00E94100263E088E090E00E9456
:100660001002089560E080E190E00E94100261E0D5
:1006700081E190E00E94100262E08DE090E00E9433
:10068000100263E08EE090E00E9410020895109244
:10069000CD0087E68093CC0088E98093C90086E08E
:1006A0008093CA000895E8ECF0E0908195FFFDCFBB
:1006B0008093CE000895EF92FF920F931F93CF93F4
:1006C000DF9300D000D00F920F92CDB7DEB79A83A0
:1006D00089837C836B835E834D8338872F838E0170
:1006E0000F5F1F4F7E0189E0E80EF11CF801819138
:1006F00091918F010E9453030E151F05B9F728969B
:100700000FB6F894DEBF0FBECDBFDF91CF911F9122
:100710000F91FF90EF9008958091C800882344F4D2
:10072000AEECB0E0E8ECF0E08C9180818823E4F35B
:100730000895E8ECF0E080818823ECF78091CE000A
:1007400090E008950F931F93CF93DF93C4E2D2E01C
:100750000CE212E00E94990389939993C017D10784
:10076000C9F7DF91CF911F910F9108951F920F92BA
:100770000FB60F9211240BB60F922F933F934F9306
:100780005F936F937F938F939F93AF93BF93EF93F9
:10079000FF930E94A2038091240290912502019769
:1007A00099F0FF91EF91BF91AF919F918F917F91C0
:1007B0006F915F914F913F912F910F900BBE0F90D2
:1007C0000FBE0F901F9018950E94A800EACF97FBCC
:1007D000072E16F4009407D077FD09D00E941D045F
:1007E00007FC05D03EF4909581959F4F0895709534
:1007F00061957F4F0895A1E21A2EAA1BBB1BFD0134
:100800000DC0AA1FBB1FEE1FFF1FA217B307E407EF
:10081000F50720F0A21BB30BE40BF50B661F771F47
:10082000881F991F1A9469F7609570958095909527
:100830009B01AC01BD01CF010895AA1BBB1B51E177
:1008400007C0AA1FBB1FA617B70710F0A61BB70B40
:10085000881F991F5A95A9F780959095BC01CD01E5
:060860000895F894FFCF9B
:1008660040777C395E79713D74060E38373F7331B7
:100876006D783E003F065B4F666D7D077F6F0067B4
:02088600000070
:00000001FF
