:100000000C9472000C9477010C9493000C94930060
:100010000C9493000C9493000C9493000C94930014
:100020000C9493000C9493000C9493000C94930004
:100030000C9493000C9493000C9493000C949300F4
:100040000C9493000C9493000C9493000C949300E4
:100050000C9493000C9493000C9493000C949300D4
:100060000C9493000C9493000C9493000C949300C4
:100070000C9493000C9493000C9493000C949300B4
:100080000C9493000C9493000C9493000C949300A4
:100090000C94A6030C9493000C9493000C9493007E
:1000A0000C9493000C9493000C9493000C94930084
:1000B0000C9493000C9493000C9493000C94930074
:1000C0000C9493000C9493000C9493000C94930064
:1000D0000C9493000C9493000C9493000C94930054
:1000E0000C94930011241FBECFEFD1E2DEBFCDBF31
:1000F00000E00CBF12E0A0E0B2E0E6E4F8E000E0CF
:100100000BBF02C007900D92A232B107D9F722E0CF
:10011000A2E2B2E001C01D92AC32B207E1F70E9448
:10012000AD000C9421040C9400005198599AE99A5E
:10013000E9E6F0E080818460808308958091220266
:1001400090912302019690932302809322020895B6
:100150000E944B030E944B03089578940E9437033A
:100160000E947C030E9495000E941702C0E0D0E02C
:10017000CE010E94CF0121962FEF89E698E1215010
:1001800080409040E1F700C00000F2CF80E480930F
:100190007C00EAE7F0E086E08083808180688083ED
:1001A0000895819A829A0E94C6000895CF92DF92A4
:1001B000EF92FF92CF93DF93EAE7F0E080818064D3
:1001C0008083A8E2B0E0C12CD12C7601E1E0F0E020
:1001D000C8E7D0E00EC048815981052E000C660B9F
:1001E000770BC40ED51EE61EF71E1197109709F463
:1001F0005BC020B380B3AF0102C0440F551F2A95E6
:10020000E2F7842B80BB20B381B3BF0102C0660F2D
:10021000771F2A95E2F7862B81BB7FEF89EF90E06D
:10022000715080409040E1F700C0000080B320B3DF
:10023000AF0102C0440F551F8A95E2F7CA018095AD
:100240009095822380BB48E050E080B321B3BF018A
:1002500002C0660F771F8A95E2F7CB0180959095D3
:10026000822381BB7FE786E294E07150804090401A
:10027000E1F700C0000020B381B3BF0102C0660FE8
:10028000771F2A95E2F7862B81BB7FE786E294E011
:10029000715080409040E1F700C00000415051098A
:1002A0004115510591F697CFC701B60128E230E01C
:1002B00040E050E00E94EB032C36314054F48A9821
:1002C00081E090E0DF91CF91FF90EF90DF90CF90B1
:1002D00008958A9A80E090E0F5CF5098589AE89A6D
:1002E000E9E6F0E080818160808378940895189534
:1002F000EAE0F1E0808180688083EBE0F1E08081DA
:100300008068808380818062808380818F77808312
:100310000895EAE0F1E0808180688083EBE0F1E01D
:1003200080818F7D808380818062808380818068EE
:1003300080830895EAE0F1E090819068908328E05E
:1003400030E0EBE0F1E00CC090819F7790839081EA
:10035000906290838695215031092115310549F02D
:1003600090819F7D908380FFEFCF908190689083F4
:10037000EECFEBE0F1E080818F7D80838081806231
:1003800080830895CF93C82F0E9478018C2F8770A7
:1003900088680E949A010E948901CF910895EF9286
:1003A000FF921F93CF93DF93D82FC92F0E9478011C
:1003B00080E40E949A010E94890113EC0F2EFAE05A
:1003C000EF2EF12CF02D0E947801812F0E949A01CE
:1003D0008D2F9C2FB7010E94D703D62FC72FFC016A
:1003E000EC5EFD4F80810E949A010E9489011150AC
:1003F0001F3B49F7DF91CF911F91FF90EF90089538
:100400001F93CF93DF93C82FD92F162F0E94780107
:1004100080EC810F0E949A01C050DE4F88810E94BB
:100420009A010E948901DF91CF911F910895EAE01E
:10043000F1E0808180688083808180628083EBE04E
:10044000F1E080818068808380818062808387E0A2
:100450000E94C201089560E083E190E00E940002E2
:1004600061E083E090E00E94000262E086E090E0BC
:100470000E94000263E087E090E00E94000208957D
:1004800060E083E190E00E94000261E086E090E09D
:100490000E94000262E08DE090E00E94000263E0B2
:1004A0008BE090E00E940002089560E083E190E01C
:1004B0000E94000261E083E090E00E94000262E09E
:1004C0008CE090E00E94000263E081E190E00E94F5
:1004D0000002089560E081E190E00E94000261E086
:1004E00082E190E00E94000262E08FE090E00E94D2
:1004F000000263E08CE090E00E940002089560E05A
:1005000084E090E00E94000261E089E090E00E94B7
:10051000000262E080E190E00E94000263E081E17D
:1005200090E00E940002089560E083E190E00E9464
:10053000000261E08EE090E00E94000262E081E053
:1005400090E00E94000263E083E090E00E940002DD
:100550000895882319F00E94400208950E94940291
:10056000089560E08BE090E00E94000261E085E089
:1005700090E00E94000262E086E090E00E940002AB
:1005800063E081E190E00E940002089560E08FE066
:1005900090E00E94000261E087E090E00E9400028B
:1005A00062E088E090E00E94000263E081E190E078
:1005B0000E9400020895882319F00E94C60208953F
:1005C0000E94B102089560E083E190E00E94000281
:1005D00061E083E190E00E94000262E087E090E049
:1005E0000E94000263E08DE090E00E940002089506
:1005F00060E083E190E00E94000261E085E090E02D
:100600000E94000262E08CE090E00E94000263E041
:1006100084E090E00E940002089560E080E190E0B4
:100620000E94000261E08FE090E00E94000262E020
:1006300083E090E00E94000263E088E090E00E9486
:100640000002089560E080E190E00E94000261E015
:1006500081E190E00E94000262E08DE090E00E9463
:10066000000263E08EE090E00E9400020895109284
:10067000CD0087E68093CC0088E98093C90086E0AE
:100680008093CA000895E8ECF0E0908195FFFDCFDB
:100690008093CE000895EF92FF920F931F93CF9314
:1006A000DF9300D000D00F920F92CDB7DEB79A83C0
:1006B00089837C836B835E834D8338872F838E0190
:1006C0000F5F1F4F7E0189E0E80EF11CF801819158
:1006D00091918F010E9443030E151F05B9F72896CB
:1006E0000FB6F894DEBF0FBECDBFDF91CF911F9143
:1006F0000F91FF90EF9008958091C800882344F4F3
:10070000AEECB0E0E8ECF0E08C9180818823E4F37B
:100710000895E8ECF0E080818823ECF78091CE002A
:1007200090E008950F931F93CF93DF93C4E2D2E03C
:100730000CE212E00E94890389939993C017D107B4
:10074000C9F7DF91CF911F910F9108951F920F92DA
:100750000FB60F9211240BB60F922F933F934F9326
:100760005F936F937F938F939F93AF93BF93EF9319
:10077000FF930E9492038091240290912502019799
:1007800099F0FF91EF91BF91AF919F918F917F91E0
:100790006F915F914F913F912F910F900BBE0F90F2
:1007A0000FBE0F901F9018950E94A800EACF97FBEC
:1007B000072E16F4009407D077FD09D00E940D048F
:1007C00007FC05D03EF4909581959F4F0895709554
:1007D00061957F4F0895A1E21A2EAA1BBB1BFD0154
:1007E0000DC0AA1FBB1FEE1FFF1FA217B307E40710
:1007F000F50720F0A21BB30BE40BF50B661F771F68
:10080000881F991F1A9469F7609570958095909547
:100810009B01AC01BD01CF010895AA1BBB1B51E197
:1008200007C0AA1FBB1FA617B70710F0A61BB70B60
:10083000881F991F5A95A9F780959095BC01CD0105
:060840000895F894FFCFBB
:1008460040777C395E79713D74060E38373F7331D7
:100856006D783E003F065B4F666D7D077F6F0067D4
:02086600000090
:00000001FF
