:100000000C9472000C94F8020C9493000C949300DE
:100010000C9493000C9493000C9493000C94930014
:100020000C9493000C9493000C9493000C94930004
:100030000C9493000C9493000C9493000C949300F4
:100040000C9493000C9493000C9493000C949300E4
:100050000C9493000C9493000C9493000C949300D4
:100060000C9493000C9493000C9493000C949300C4
:100070000C9493000C9493000C9493000C949300B4
:100080000C9493000C9493000C9493000C949300A4
:100090000C9416040C9493000C9493000C9493000D
:1000A0000C9493000C9493000C9493000C94930084
:1000B0000C9493000C9493000C9493000C94930074
:1000C0000C9493000C9493000C9493000C94930064
:1000D0000C9493000C9493000C9493000C94930054
:1000E0000C94930011241FBECFEFD1E2DEBFCDBF31
:1000F00000E00CBF12E0A0E0B2E0E8E6F9E000E0CA
:100100000BBF02C007900D92A635B107D9F722E0C8
:10011000A6E5B2E001C01D92A036B207E1F70E9449
:100120007B010C94B2040C9400006C98749A6D9846
:10013000759A0895649B36C0809158029091590237
:10014000892B49F0659B68C08091560290915702B7
:10015000892BD9F1089580910002909101020196B6
:1001600090930102809300020E945F02019779F050
:1001700081E090E090935902809358028FE39CE9CC
:100180000197F1F700C0000081E090E008958091B0
:100190000002909101028C599F4F9093010280932D
:1001A0000002E6CF8091580290915902019751F6D2
:1001B00010925902109258028FE39CE90197F1F7CF
:1001C00000C0000080E090E00895809100029091CE
:1001D0000102019690930102809300020E94C601E1
:1001E000019779F081E090E0909357028093560256
:1001F0008FE39CE90197F1F700C0000081E090E0F7
:10020000089580910002909101028C599F4F909324
:10021000010280930002E6CF80915602909157022E
:10022000019709F097CF10925702109256028FE370
:100230009CE90197F1F700C0000080E090E008958C
:1002400080915A0290915B02892B09F042C081E0B3
:1002500090E090935B0280935A0280915C029091AF
:100260005D020197B9F482E090E090935B02809385
:100270005A0281EB90E00E94010431C0809100029B
:10028000909101020E94840380915C0290915D0232
:100290000197F9F081E090E00E9401040E949A0029
:1002A000892B61F72FEF83ED90E321508040904040
:1002B000E1F700C000008FEF90E00E9401042FEFF3
:1002C00083ED90E3215080409040E1F700C00000B2
:1002D000D5CF80915A0290915B02019721F28091D3
:1002E0005A0290915B02029709F008958FEF90E017
:1002F0000E940104FACF78940E94EC020E94F50358
:100300000E9409040E9495000E94CC030E942A03C7
:1003100080E090E00E9484030699FACF8FE39CE985
:100320000197F1F700C000000E942001F1CF9093E7
:10033000C5008093C40088E08093C10086E080936C
:10034000C2000895E0ECF0E0908195FFFDCF80932E
:10035000C6000895CF93DF93C82FD92F88818823B3
:1003600031F021960E94A20189918111FBCFDF918A
:10037000CF910895819A089580E480937C00EAE704
:10038000F0E086E0808387E880830895CF92DF9253
:10039000EF92FF92CF93DF9300D000D000D00F9266
:1003A000CDB7DEB787E690E00E9497010E94BA01C0
:1003B0000E94BC0128E230E0C12CD12C7601EAE792
:1003C000F0E048E750E016C080818064808380813F
:1003D00086FDFDCFDA018D919C91092E000CAA0BB0
:1003E000BB0BC80ED91EEA1EFB1E21503109211578
:1003F0003105E9F0809A88988FEC97E00197F1F742
:1004000000C00000809880E190E0899AA3E5B1E007
:100410001197F1F700C000008998A3E5B1E01197AA
:10042000F1F700C000000197009779F7CDCFC70121
:10043000B60128E230E040E050E00E944704DA01D3
:10044000C90179014AE0BE016F5F7F4F0E947D04C0
:1004500083E292E00E94AA01CE0101960E94AA01C5
:1004600083E592E00E94AA01B8EEEB16B3E0FB062A
:100470009CF08DE292E00E94AA0180E090E02A9632
:100480000FB6F894DEBF0FBECDBFDF91CF91FF90C6
:10049000EF90DF90CF90089582E392E00E94AA014E
:1004A00081E090E0ECCF859A089584E480937C000D
:1004B000EAE7F0E086E0808387E880830895CF92C2
:1004C000DF92EF92FF92CF93DF9300D000D000D065
:1004D0000F92CDB7DEB787E690E00E9497010E94A9
:1004E00053020E94550228E230E0C12CD12C760143
:1004F000EAE7F0E048E750E016C08081806480833E
:10050000808186FDFDCFDA018D919C91092E000C32
:10051000AA0BBB0BC80ED91EEA1EFB1E21503109C7
:1005200021153105E9F0849A8C988FEC97E00197BA
:10053000F1F700C00000849880E190E08D9AA3E577
:10054000B1E01197F1F700C000008D98A3E5B1E08C
:100550001197F1F700C000000197009779F7CDCF10
:10056000C701B60128E230E040E050E00E944704B5
:10057000DA01C90179014AE0BE016F5F7F4F0E9435
:100580007D0483E292E00E94AA01CE0101960E94BE
:10059000AA0183E592E00E94AA01B8EEEB16B3E04F
:1005A000FB069CF081E492E00E94AA0180E090E0CA
:1005B0002A960FB6F894DEBF0FBECDBFDF91CF9164
:1005C000FF90EF90DF90CF90089586E492E00E9434
:1005D000AA0181E090E0ECCF5098589AE89AE9E6B9
:1005E000F0E080818160808378940C9A149808955B
:1005F0001F920F920FB60F9211240BB60F922F93EA
:100600003F934F935F936F937F938F939F93AF939A
:10061000BF93EF93FF93489903C0149A489BFDCF73
:100620000699F9CF14988FEF90E00E940104FF9192
:10063000EF91BF91AF919F918F917F916F915F915A
:100640004F913F912F910F900BBE0F900FBE0F90C7
:100650001F9018950E98169A0895EAE0F1E08081AF
:1006600080688083EBE0F1E0808180688083808116
:100670008062808380818F7780830895EAE0F1E053
:10068000808180688083EBE0F1E080818F7D8083D2
:100690008081806280838081806880830895EAE021
:1006A000F1E090819068908328E030E0EBE0F1E0A9
:1006B0000CC090819F779083908190629083869503
:1006C000215031092115310549F090819F7D90839A
:1006D00080FFEFCF908190689083EECFEBE0F1E068
:1006E00080818F7D80838081806280830895CF9315
:1006F000C82F0E942D038C2F877088680E944F039B
:100700000E943E03CF910895EF92FF921F93CF93E3
:10071000DF93D82FC92F0E942D0380E40E944F033E
:100720000E943E0313EC0F2EFAE0EF2EF12CF02D79
:100730000E942D03812F0E944F038D2F9C2FB70104
:100740000E943304D62FC72FFC01EA5EFD4F808143
:100750000E944F030E943E0311501F3B49F7DF9157
:10076000CF911F91FF90EF9008951F93CF93DF9348
:10077000C82FD92F162F0E942D0380EC810F0E94C5
:100780004F03CE5FDD4F88810E944F030E943E03DE
:10079000DF91CF911F910895EAE0F1E080818068B8
:1007A0008083808180628083EBE0F1E080818068DB
:1007B000808380818062808387E00E947703089530
:1007C00060E080E190E00E94B50361E081E190E0AB
:1007D0000E94B50362E08DE090E00E94B50363E003
:1007E0008EE090E00E94B50308951092CD0087E658
:1007F0008093CC0088E98093C90086E08093CA008A
:100800000895E8ECF0E0908195FFFDCF8093CE0055
:1008100008958091C800882344F4AEECB0E0E8EC81
:10082000F0E08C9180818823E4F308951F921FB635
:100830001F9211248F939F938091CE0090E090930C
:100840005F0280935E028130910531F09F918F911C
:100850001F901FBE1F90189581E090E090935D025D
:1008600080935C02F3CF97FB072E16F4009407D019
:1008700077FD09D00E94690407FC05D03EF49095ED
:1008800081959F4F0895709561957F4F0895A1E2DE
:100890001A2EAA1BBB1BFD010DC0AA1FBB1FEE1FFA
:1008A000FF1FA217B307E407F50720F0A21BB30B45
:1008B000E40BF50B661F771F881F991F1A9469F7C1
:1008C00060957095809590959B01AC01BD01CF011D
:1008D0000895AA1BBB1B51E107C0AA1FBB1FA61787
:1008E000B70710F0A61BB70B881F991F5A95A9F7D9
:1008F00080959095BC01CD010895BB274A3031F415
:10090000992322F4BDE2909581959F4F0C94890420
:10091000BB27FB015527AA27880F991FAA1FA417D9
:1009200010F0A41B83955051B9F7A05DAA3308F0CD
:10093000A95DA193009779F7B111B1931192CB0101
:100940000C94A204DC01FC01672F71917723E1F77D
:10095000329704C07C916D9370836291AE17BF078C
:08096000C8F30895F894FFCFDD
:10096800FEFF40777C395E79713D74060E38373F5B
:1009780073316D783E003F065B4F666D7D077F6F74
:10098800006700417665726167653A2000676565B2
:100998006E206D657461616C204C696E6B730D0A15
:1009A800006765656E206D657461616C2052454312
:0609B8004854530D0A0033
:00000001FF
