:100000000C9472000C94EE020C9493000C949300E8
:100010000C9493000C9493000C9493000C94930014
:100020000C9493000C9493000C9493000C94930004
:100030000C9493000C9493000C9493000C949300F4
:100040000C9493000C9493000C9493000C949300E4
:100050000C9493000C9493000C9493000C949300D4
:100060000C9493000C9493000C9493000C949300C4
:100070000C9493000C9493000C9493000C949300B4
:100080000C9493000C9493000C9493000C949300A4
:100090000C940C040C9493000C9493000C94930017
:1000A0000C9493000C9493000C9493000C94930084
:1000B0000C9493000C9493000C9493000C94930074
:1000C0000C9493000C9493000C9493000C94930064
:1000D0000C9493000C9493000C9493000C94930054
:1000E0000C94930011241FBECFEFD1E2DEBFCDBF31
:1000F00000E00CBF12E0A0E0B2E0E4E5F9E000E0CF
:100100000BBF02C007900D92A635B107D9F722E0C8
:10011000A6E5B2E001C01D92A036B207E1F70E9449
:1001200071010C94A8040C9400006C98749A6D985A
:10013000759A0895649B36C0809158029091590237
:10014000892B49F0659B68C08091560290915702B7
:10015000892BD9F1089580910002909101020196B6
:1001600090930102809300020E945502019779F05A
:1001700081E090E090935902809358028FE39CE9CC
:100180000197F1F700C0000081E090E008958091B0
:100190000002909101028C599F4F9093010280932D
:1001A0000002E6CF8091580290915902019751F6D2
:1001B00010925902109258028FE39CE90197F1F7CF
:1001C00000C0000080E090E00895809100029091CE
:1001D0000102019690930102809300020E94BC01EB
:1001E000019779F081E090E0909357028093560256
:1001F0008FE39CE90197F1F700C0000081E090E0F7
:10020000089580910002909101028C599F4F909324
:10021000010280930002E6CF80915602909157022E
:10022000019709F097CF10925702109256028FE370
:100230009CE90197F1F700C0000080E090E008958C
:1002400080915A0290915B02892BC9F581E090E080
:1002500090935B0280935A0280915C0290915D02C0
:100260000197B9F482E090E090935B0280935A0288
:1002700081EB90E00E94F70328C0809100029091EA
:1002800001020E947A0380915C0290915D020197C5
:10029000B1F081E090E00E94F7030E949A00892B60
:1002A00061F78FEF90E00E94F7032FEF83ED90E36B
:1002B000215080409040E1F700C00000DECF8091E7
:1002C0005A0290915B02019769F280915A029091D3
:1002D0005B02029709F008958FEF90E00E94F70308
:1002E000FACF78940E94E2020E94EB030E94FF037F
:1002F0000E9495000E94C2030E94200380E090E0CB
:100300000E947A030699FACF8FE39CE90197F1F7EF
:1003100000C000000E942001F1CF9093C50080939F
:10032000C40088E08093C10086E08093C2000895F5
:10033000E0ECF0E0908195FFFDCF8093C60008953A
:10034000CF93DF93C82FD92F8881882331F021964E
:100350000E94980189918111FBCFDF91CF9108957F
:10036000819A089580E480937C00EAE7F0E086E0DB
:10037000808387E880830895CF92DF92EF92FF9287
:10038000CF93DF9300D000D000D00F92CDB7DEB76F
:1003900087E690E00E948D010E94B0010E94B201A8
:1003A00028E230E0C12CD12C7601EAE7F0E048E702
:1003B00050E016C0808180648083808186FDFDCFFF
:1003C000DA018D919C91092E000CAA0BBB0BC80E73
:1003D000D91EEA1EFB1E2150310921153105E9F015
:1003E000809A88988FEC97E00197F1F700C00000A1
:1003F000809888E090E0899AA3E5B1E01197F1F741
:1004000000C000008998A3E5B1E01197F1F700C0A2
:1004100000000197009779F7CDCFC701B60128E218
:1004200030E040E050E00E943D04DA01C90179016A
:100430004AE0BE016F5F7F4F0E94730483E292E047
:100440000E94A001CE0101960E94A00183E592E0E6
:100450000E94A001B8EEEB16B3E0FB069CF08DE223
:1004600092E00E94A00180E090E02A960FB6F894F6
:10047000DEBF0FBECDBFDF91CF91FF90EF90DF9039
:10048000CF90089582E392E00E94A00181E090E085
:10049000ECCF859A089584E480937C00EAE7F0E04D
:1004A00086E0808387E880830895CF92DF92EF9281
:1004B000FF92CF93DF9300D000D000D00F92CDB742
:1004C000DEB787E690E00E948D010E9449020E94FB
:1004D0004B0228E230E0C12CD12C7601EAE7F0E0B3
:1004E00048E750E016C0808180648083808186FD6B
:1004F000FDCFDA018D919C91092E000CAA0BBB0B4C
:10050000C80ED91EEA1EFB1E2150310921153105E6
:10051000E9F0849A8C988FEC97E00197F1F700C08E
:100520000000849888E090E08D9AA3E5B1E01197EF
:10053000F1F700C000008D98A3E5B1E01197F1F745
:1005400000C000000197009779F7CDCFC701B60131
:1005500028E230E040E050E00E943D04DA01C901A9
:1005600079014AE0BE016F5F7F4F0E94730483E20E
:1005700092E00E94A001CE0101960E94A00183E5B5
:1005800092E00E94A001B8EEEB16B3E0FB069CF0EF
:1005900081E492E00E94A00180E090E02A960FB6EC
:1005A000F894DEBF0FBECDBFDF91CF91FF90EF90EB
:1005B000DF90CF90089586E492E00E94A00181E050
:1005C00090E0ECCF5098589AE89AE9E6F0E0808104
:1005D0008160808378940C9A149808951F920F92EA
:1005E0000FB60F9211240BB60F922F933F934F9398
:1005F0005F936F937F938F939F93AF93BF93EF938B
:10060000FF93489903C0149A489BFDCF0699F9CFF0
:1006100014988FEF90E00E94F703FF91EF91BF9144
:10062000AF919F918F917F916F915F914F913F918A
:100630002F910F900BBE0F900FBE0F901F9018952B
:100640000E98169A0895EAE0F1E080818068808330
:10065000EBE0F1E08081806880838081806280832C
:1006600080818F7780830895EAE0F1E0808180685F
:100670008083EBE0F1E080818F7D808380818062E8
:1006800080838081806880830895EAE0F1E0908132
:100690009068908328E030E0EBE0F1E00CC09081BE
:1006A0009F77908390819062908386952150310945
:1006B0002115310549F090819F7D908380FFEFCF18
:1006C000908190689083EECFEBE0F1E080818F7DA8
:1006D00080838081806280830895CF93C82F0E9499
:1006E00023038C2F877088680E9445030E9434037F
:1006F000CF910895EF92FF921F93CF93DF93D82F5E
:10070000C92F0E94230380E40E9445030E94340302
:1007100013EC0F2EFAE0EF2EF12CF02D0E942303A4
:10072000812F0E9445038D2F9C2FB7010E94290421
:10073000D62FC72FFC01EA5EFD4F80810E94450342
:100740000E94340311501F3B49F7DF91CF911F9155
:10075000FF90EF9008951F93CF93DF93C82FD92F69
:10076000162F0E94230380EC810F0E944503CE5F69
:10077000DD4F88810E9445030E943403DF91CF91B1
:100780001F910895EAE0F1E0808180688083808194
:1007900080628083EBE0F1E08081806880838081EB
:1007A0008062808387E00E946D03089560E080E1AD
:1007B00090E00E94AB0361E081E190E00E94AB0316
:1007C00062E08DE090E00E94AB0363E08EE090E099
:1007D0000E94AB0308951092CD0087E68093CC0071
:1007E00088E98093C90086E08093CA000895E8EC08
:1007F000F0E0908195FFFDCF8093CE000895809129
:10080000C800882344F4AEECB0E0E8ECF0E08C9152
:1008100080818823E4F308951F921FB61F9211244C
:100820008F939F938091CE0090E090935F0280938E
:100830005E028130910531F09F918F911F901FBE14
:100840001F90189581E090E090935D0280935C0288
:10085000F3CF97FB072E16F4009407D077FD09D04D
:100860000E945F0407FC05D03EF4909581959F4F50
:100870000895709561957F4F0895A1E21A2EAA1BE5
:10088000BB1BFD010DC0AA1FBB1FEE1FFF1FA21740
:10089000B307E407F50720F0A21BB30BE40BF50B3D
:1008A000661F771F881F991F1A9469F760957095C6
:1008B000809590959B01AC01BD01CF010895AA1BC5
:1008C000BB1B51E107C0AA1FBB1FA617B70710F03B
:1008D000A61BB70B881F991F5A95A9F7809590956D
:1008E000BC01CD010895BB274A3031F4992322F48D
:1008F000BDE2909581959F4F0C947F04BB27FB012F
:100900005527AA27880F991FAA1FA41710F0A41B08
:1009100083955051B9F7A05DAA3308F0A95DA19362
:10092000009779F7B111B1931192CB010C9498040F
:10093000DC01FC01672F71917723E1F7329704C046
:100940007C916D9370836291AE17BF07C8F30895D1
:04095000F894FFCF49
:10095400FEFF40777C395E79713D74060E38373F6F
:1009640073316D783E003F065B4F666D7D077F6F88
:10097400006700417665726167653A2000676565C6
:100984006E206D657461616C204C696E6B730D0A29
:10099400006765656E206D657461616C2052454326
:0609A4004854530D0A0047
:00000001FF
