:100000000C9472000C9427020C9493000C949300AF
:100010000C9493000C9493000C9493000C94930014
:100020000C9493000C9493000C9493000C94930004
:100030000C9493000C9493000C9493000C949300F4
:100040000C9493000C9493000C9493000C949300E4
:100050000C9493000C9493000C9493000C949300D4
:100060000C9493000C9493000C9493000C949300C4
:100070000C9493000C9493000C9493000C949300B4
:100080000C9493000C9493000C9493000C94E30252
:100090000C9493000C9493000C9493000C94930094
:1000A0000C9493000C9493000C9493000C94930084
:1000B0000C9493000C94D1020C9492030C94930032
:1000C0000C9493000C9493000C947E030C94930076
:1000D0000C9493000C9493000C9493000C94930054
:1000E0000C94930011241FBECFEFD1E2DEBFCDBF31
:1000F00000E00CBF12E0A0E0B2E0ECE3F8E000E0CA
:100100000BBF02C007900D92A230B107D9F722E0D1
:10011000A2E0B2E001C01D92AC31B207E1F70E944B
:10012000E1000C941C040C940000CF93DF930E9418
:10013000360380910C0290910D02CCE0D2E0019741
:10014000C1F080910C0290910D02029741F1DF9174
:10015000CF9108958A819B8180389105B8F48A8176
:100160009B818F379105A8F08A819B818F379105FC
:1001700099F080911802909119024E975CF380914A
:100180001602909117024E972CF3DBCF0E940F01BD
:10019000E6CF0E944C01E8CF0E94FB00EACF80919D
:1001A0000E0290910F02019749F080910E029091FA
:1001B0000F02029761F60E94B601C9CF0E944D015D
:1001C000F4CFFFCF80911602909117022091180270
:1001D00030911902820F931F0D9690930302809322
:1001E000020208958EE794E00E949E028EE794E05A
:1001F0000E949702089580E090E00E949E0280E0B5
:1002000090E00E9497020895262F372F281739076C
:100210000CF40197821793070CF40196089520912E
:100220001802309119028091160290911702281736
:100230003907B9F020911802309119028091160205
:100240009091170228173907ACF0209116023091CF
:1002500017028091180290911902281739079CF013
:1002600008958EE794E00E949E028EE794E00E943B
:100270009702089581E796E00E949E028FE794E03E
:100280000E949702E2CF81E796E00E9497028FE7F3
:1002900094E00E949E02E4CF08950E94FE020E9414
:1002A000F50280910602909107028430904148F453
:1002B0000E94F200809106029091070284309041E2
:1002C000B8F30E94F5020E94A50280910602909167
:1002D00007028839984048F40E94F2008091060293
:1002E0009091070288399840B8F30E94A5020E94B5
:1002F000F50280910602909107028C37954148F4EF
:100300000E94F20080910602909107028C3795417D
:10031000B8F30E94A5020E94F50280910602909116
:1003200007028839984048F40E94F2008091060242
:100330009091070288399840B8F30E94A5020E9464
:10034000F5020E94F20080911602909117024097E8
:1003500044F00E94F200809116029091170240979B
:10036000C4F70E94FB000E94090308950E94FE0248
:100370000E94F5028091060290910702843090411C
:1003800048F40E94F20080910602909107028430A6
:100390009041B8F30E94F5020E94B70280910602D4
:1003A000909107028839984048F40E94F2008091A9
:1003B00006029091070288399840B8F30E94B7026C
:1003C0000E94F50280910602909107028C379541B8
:1003D00048F40E94F20080910602909107028C3747
:1003E0009541B8F30E94B7020E94F502809106027F
:1003F000909107028839984048F40E94F200809159
:1004000006029091070288399840B8F30E94B7021B
:100410000E9409030E94F200809116029091170237
:10042000409744F00E94F2008091160290911702CA
:100430004097C4F70E94FB0008955098589AE89A94
:10044000E9E6F0E0808181608083789408951F92CE
:100450000F920FB60F9211240BB60F922F933F936A
:100460004F935F936F937F938F939F93AF93BF93BC
:10047000EF93FF93489B04C00E94FB004899FCCF78
:100480000699F8CFFF91EF91BF91AF919F918F9116
:100490007F916F915F914F913F912F910F900BBE84
:1004A0000F900FBE0F901F9018956B9AE1E0F1E04E
:1004B0008081886080839D9A808180618083739829
:1004C000E2E0F1E08081877F8083A59880818F7E44
:1004D000808308951092900082E0809391001092A2
:1004E000A0008093A100089582E8809390008AE1A3
:1004F0008093910081E090E0909399008093980020
:100500007894089582E88093A0008AE18093A10006
:1005100081E090E09093A9008093A80078940895DA
:100520000E9482020E9474020E9455020895282FA0
:10053000392F30939700209396000895282F392F54
:100540003093A7002093A600089580910A0290910D
:100550000B02892B41F4A59A81E090E090930B0265
:1005600080930A020895A59880E090E0F7CF8091EB
:10057000080290910902892B61F4E2E0F1E08081A8
:100580008061808381E090E090930902809308026B
:100590000895E2E0F1E080818F7E808380E090E04A
:1005A000F3CF8F938FB78F939F9380910602909193
:1005B0000702019690930702809306029F918F9104
:1005C0008FBF8F9118958F938FB78F939F93809143
:1005D0000402909105020196909305028093040213
:1005E0009F918F918FBF8F91189510920702109253
:1005F000060210920502109204020895E2E7F0E06C
:10060000808181608083E1E7F0E080818160808388
:100610000895E2E7F0E080818E7F8083E1E7F0E0FB
:1006200080818E7F808308951092D50087E6809325
:10063000D40080E18093D10086E08093D2000895B9
:100640008091D000882344F4A6EDB0E0E0EDF0E026
:100650008C9180818823E4F30895E0EDF0E08081BF
:100660008823ECF78091D60090E008950F931F93B4
:10067000CF93DF93CCE0D2E004E112E00E942D039F
:1006800089939993C017D107C9F7DF91CF911F9133
:100690000F9108958BE2809320018AE580932101D8
:1006A00081E2809373008FEF9FEF909329018093F5
:1006B000280184E190E090932B0180932A0190938C
:1006C0002D0180932C0178940895EAE0F1E0808177
:1006D00080618083808180628083ABE0B1E08C9117
:1006E0008F7E8C938C918F7D8C9380818D7F808386
:1006F00008950E9465030E944A0308958F938FB75F
:100700008F938BB78F93EF93FF93E1E2F1E08081BA
:1007100080648083FF91EF918F918BBF8F918FBF0A
:100720008F9118950F920FB60F921F9211242F934D
:100730002BB72F933F936F937F938F939F93AF9399
:10074000BF93EF93FF938091210186FF1EC080919C
:1007500026019091270190931B0280931A02E1E2F7
:10076000F1E080818F7B8083FF91EF91BF91AF910A
:100770009F918F917F916F913F912F912BBF2F91DF
:100780001F900F900FBE0F90189520912601309169
:10079000270180911A0290911B02281B390BA9E0B6
:1007A000BCE80E940D040024880F991F001C880FCC
:1007B000991F001C892F902D209114023091150251
:1007C000232BC9F490931702809316028091140290
:1007D00090911502892BA1F481E090E0909315028D
:1007E00080931402E0E2F1E08081877F8083808142
:1007F00080628083B9CF9093190280931802E6CF6C
:100800001092150210921402E0E2F1E080818F7DD7
:100810008083808188608083A7CFA29FB001B39F2F
:10082000C001A39F700D811D1124911DB29F700DF9
:0C083000811D1124911D0895F894FFCF44
:02083C00670053
:00000001FF
