:100000000C9472000C9462040C9493000C94930072
:100010000C9493000C9493000C9493000C94930014
:100020000C9493000C9493000C9493000C94930004
:100030000C9493000C9493000C9493000C949300F4
:100040000C9493000C9493000C9493000C949300E4
:100050000C9493000C9493000C9493000C949300D4
:100060000C9493000C9493000C9493000C949300C4
:100070000C9493000C9493000C9493000C949300B4
:100080000C9493000C9493000C9493000C941E0514
:100090000C94CE050C9493000C9493000C94930054
:1000A0000C9493000C9493000C9493000C94930084
:1000B0000C9493000C940C050C9455060C9493002E
:1000C0000C9493000C9493000C9441060C949300B0
:1000D0000C9493000C9493000C9493000C94930054
:1000E0000C94930011241FBECFEFD1E2DEBFCDBF31
:1000F00000E00CBF12E0A0E0B2E0E2E1FEE000E0D0
:100100000BBF02C007900D92A232B107D9F722E0CF
:10011000A2E2B2E001C01D92AC33B207E1F70E9447
:1001200091020C9407070C940000EAE0F1E0808152
:1001300080688083EBE0F1E080818068808380814B
:100140008064808380818F7780830895EAE0F1E086
:10015000808180688083EBE0F1E080818F7B808309
:100160008081806480838081806880830895EAE054
:10017000F1E090819068908328E030E0EBE0F1E0DE
:100180000CC090819F779083908190649083869536
:10019000215031092115310549F090819F7B9083D1
:1001A00080FFEFCF908190689083EECFEBE0F1E09D
:1001B00080818F7B80838081806480830895CF934A
:1001C000C82F0E9495008C2F877088680E94B70006
:1001D0000E94A600CF910895EF92FF921F93CF93B4
:1001E000DF93D82FC92F0E94950080E40E94B700AA
:1001F0000E94A60013EC0F2EFAE0EF2EF12CF02D4A
:100200000E949500812F0E94B7008D2F9C2FB7016F
:100210000E94D006D62FC72FFC01EB5EFD4F8081D8
:100220000E94B7000E94A60011501F3B49F7DF91C2
:10023000CF911F91FF90EF9008951F93CF93DF937D
:10024000C82FD92F162F0E94950080EC810F0E9495
:10025000B700CF5FDD4F88810E94B7000E94A600E3
:10026000DF91CF911F910895EAE0F1E080818068ED
:100270008083808180648083EBE0F1E0808180680E
:10028000808380818064808387E00E94DF000895FE
:1002900060E083E190E00E941D0161E083E090E076
:1002A0000E941D0162E086E090E00E941D0163E073
:1002B00087E090E00E941D01089560E083E190E0F6
:1002C0000E941D0161E086E090E00E941D0162E055
:1002D0008DE090E00E941D0163E08BE090E00E94C1
:1002E0001D01089560E083E190E00E941D0161E03E
:1002F00083E090E00E941D0162E08CE090E00E94AB
:100300001D0163E081E190E00E941D01089560E01D
:1003100081E190E00E941D0161E082E190E00E9495
:100320001D0162E08FE090E00E941D0163E08CE01F
:1003300090E00E941D01089560E084E090E00E943A
:100340001D0161E089E090E00E941D0162E080E112
:1003500090E00E941D0163E081E190E00E941D0198
:10036000089560E083E190E00E941D0161E08EE06D
:1003700090E00E941D0162E081E090E00E941D017A
:1003800063E083E090E00E941D010895882319F046
:100390000E945D0108950E94B101089560E08BE024
:1003A00090E00E941D0161E085E090E00E941D0147
:1003B00062E086E090E00E941D0163E081E190E050
:1003C0000E941D01089560E08FE090E00E941D01F1
:1003D00061E087E090E00E941D0162E088E090E02B
:1003E0000E941D0163E081E190E00E941D010895DB
:1003F000882319F00E94E30108950E94CE01089518
:1004000060E083E190E00E941D0161E083E190E003
:100410000E941D0162E087E090E00E941D0163E000
:100420008DE090E00E941D01089560E083E190E07E
:100430000E941D0161E085E090E00E941D0162E0E4
:100440008CE090E00E941D0163E084E090E00E9457
:100450001D01089560E080E190E00E941D0161E0CF
:100460008FE090E00E941D0162E083E090E00E9436
:100470001D0163E088E090E00E941D01089560E0A6
:1004800080E190E00E941D0161E081E190E00E9426
:100490001D0162E08DE090E00E941D0163E08EE0AE
:1004A00090E00E941D01089580912C0290912D02F0
:1004B000019739F080912C0290912D020297F9F06A
:1004C000089580912E0290912F028038910588F432
:1004D00080912E0290912F028F37910568F08091C4
:1004E0002E0290912F028F37910521F70E94B402BE
:1004F000E1CF0E94C802ECCF0E941E03F0CF809192
:100500002E0290912F02019749F080912E02909136
:100510002F020297A9F60E94E703D2CF0E9474032C
:10052000F4CF0E94CB040E943C060E945D050E940D
:10053000A2057894FFCF80913602909137022091E6
:10054000380230913902820F931F0D969093230247
:100550008093220208958EE794E00E94D9048EE7EA
:1005600094E00E94D204089580E090E00E94D904B3
:1005700080E090E00E94D2040895262F372F28179C
:1005800039070CF40197821793070CF4019608952C
:100590000E94560521C02091380230913902809185
:1005A0003602909137022817390769F120913802F5
:1005B0003091390280913602909137028217930769
:1005C0005CF120913602309137028091380290918F
:1005D0003902821793074CF18091380290913902C9
:1005E0004E97CCF280913602909137024E979CF252
:1005F00020E030E040E050E060E070E081E090E03A
:100600000E94710508958EE794E00E94D9048EE758
:1006100094E00E94D204E0CF81E796E00E94D904E2
:100620008FE794E00E94D204CCCF81E796E00E944D
:10063000D2048FE794E00E94D904CECF0E944F05E8
:1006400021C0209138023091390280913602909178
:1006500037022817390769F12091380230913902A1
:100660008091360290913702281739075CF120916A
:100670003602309137028091380290913902281762
:1006800039074CF180913802909139024497CCF2AD
:10069000809136029091370244979CF220E030E03E
:1006A00040E050E060E070E081E090E00E94710581
:1006B00008958EE794E00E94D9048EE794E00E94AA
:1006C000D204E0CF81E796E00E94D9048FE794E05E
:1006D0000E94D204CCCF81E796E00E94D2048FE73B
:1006E00094E00E94D904CECF0E9439050E943005C3
:1006F0008091260290912702843D974148F40E9400
:10070000AB028091260290912702843D9741B8F375
:100710000E9430050E94E0048091260290912702F9
:100720008E32994048F40E94AB028091260290914B
:1007300027028E329940B8F30E94E0040E943005EF
:1007400080912602909127028C37954148F40E94AF
:10075000AB0280912602909127028C379541B8F325
:100760000E94E0040E9430058091260290912702A9
:100770008E32994048F40E94AB02809126029091FB
:1007800027028E329940B8F30E94E0040E9430059F
:100790000E94AB028091360290913702409744F05C
:1007A0000E94AB0280913602909137024097C4F7C5
:1007B0000E94B4020E94440520E030E040E050E096
:1007C00060E070E081E090E00E94710508950E9471
:1007D00039050E9430058091260290912702843DC0
:1007E000974148F40E94AB02809126029091270223
:1007F000843D9741B8F30E9430050E94F204809135
:100800002602909127028E32994048F40E94AB0252
:1008100080912602909127028E329940B8F30E946F
:10082000F2040E94300580912602909127028C37B5
:10083000954148F40E94AB028091260290912702D4
:100840008C379541B8F30E94F2040E9430058091E4
:100850002602909127028E32994048F40E94AB0202
:1008600080912602909127028E329940B8F30E941F
:10087000F2040E9444050E94AB02809136029091DE
:100880003702409744F00E94AB028091360290916B
:1008900037024097C4F70E94B40220E030E040E005
:1008A00050E060E070E081E090E00E947105089502
:1008B0005098589AE89AE9E6F0E080818160808358
:1008C000789408951F920F920FB60F9211240BB6D1
:1008D0000F922F933F934F935F936F937F938F93D9
:1008E0009F93AF93BF93EF93FF93489B04C00E94E5
:1008F000B4024899FCCF0699F8CFFF91EF91BF91D0
:10090000AF919F918F917F916F915F914F913F91A7
:100910002F910F900BBE0F900FBE0F901F90189548
:100920006B9AE1E0F1E08081886080839D9A80810C
:10093000806180837398E2E0F1E08081877F80832B
:10094000A59A80818F7E808308951092900082E026
:10095000809391001092A0008093A100089582E8F6
:10096000809390008AE18093910081E090E09093E1
:100970009900809398007894089582E88093A0006D
:100980008AE18093A10081E090E09093A900809398
:10099000A800789408950E94BD040E94AF040E94AC
:1009A00090040895282F392F3093970020939600B4
:1009B0000895282F392F3093A7002093A60008957B
:1009C00080912A0290912B02892B41F4A59881E015
:1009D00090E090932B0280932A020895A59A80E0DC
:1009E00090E0F7CF8091280290912902892B61F441
:1009F000E2E0F1E080818061808381E090E090938B
:100A00002902809328020895E2E0F1E080818F7E40
:100A1000808380E090E0F3CF8F938FB78F939F9385
:100A2000809126029091270201969093270280934D
:100A300026029F918F918FBF8F9118958F938FB7BB
:100A40008F939F9380912402909125020196909319
:100A50002502809324029F918F918FBF8F911895CB
:100A60001092270210922602109225021092240260
:100A70000895E2E7F0E0808181608083E1E7F0E0C3
:100A80008081816080830895E2E7F0E080818E7F3D
:100A90008083E1E7F0E080818E7F80830895A598D0
:100AA000E2E0F1E08081806180830895A59AE2E030
:100AB000F1E080818F7E808308951092CD0087E6DB
:100AC0008093CC0088E98093C90086E08093CA00B7
:100AD0000895E8ECF0E0908195FFFDCF8093CE0083
:100AE0000895EF92FF920F931F93CF93DF9300D05F
:100AF00000D00F920F92CDB7DEB79A8389837C83A3
:100B00006B835E834D8338872F838E010F5F1F4F6A
:100B10007E0189E0E80EF11CF801819191918F012D
:100B20000E9469050E151F05B9F728960FB6F894AF
:100B3000DEBF0FBECDBFDF91CF911F910F91FF9010
:100B4000EF9008958091C800882344F4AEECB0E0A3
:100B5000E8ECF0E08C9180818823E4F30895E8ECE0
:100B6000F0E080818823ECF78091CE0090E008953A
:100B70000F931F93CF93DF93CCE2D2E004E312E014
:100B80000E94AF0589939993C017D107C9F70E94B6
:100B9000A205DF91CF911F910F9108951F920F929F
:100BA0000FB60F9211240BB60F922F933F934F93D2
:100BB0005F936F937F938F939F93AF93BF93EF93C5
:100BC000FF938091CE00E091000291E09E0F909300
:100BD0000002F0E0EE0FFF1FE45DFD4F90E0918317
:100BE000808380910002843098F4FF91EF91BF914F
:100BF000AF919F918F917F916F915F914F913F91B5
:100C00002F910F900BBE0F900FBE0F901F90189555
:100C1000109200020E945402E8CF8BE280932001E0
:100C20008AE58093210181E2809373008FEF9FEF2B
:100C3000909329018093280184E190E090932B0107
:100C400080932A0190932D0180932C01789408952C
:100C5000EAE0F1E08081806180838081806280832E
:100C6000ABE0B1E08C918F7E8C938C918F7D8C93D7
:100C700080818D7F808308950E9428060E940D0642
:100C800008958F938FB78F938BB78F93EF93FF93C5
:100C9000E1E2F1E0808180648083FF91EF918F91A8
:100CA0008BBF8F918FBF8F9118950F920FB60F92B8
:100CB0001F9211242F932BB72F933F936F937F9302
:100CC0008F939F93AF93BF93EF93FF9380912101F5
:100CD00086FF1EC0809126019091270190933B02D0
:100CE00080933A02E1E2F1E080818F7B8083FF9183
:100CF000EF91BF91AF919F918F917F916F913F91B4
:100D00002F912BBF2F911F900F900FBE0F90189512
:100D1000209126013091270180913A0290913B0267
:100D2000281B390BA9E0BCE80E94E4060024880FC8
:100D3000991F001C880F991F001C892F902D20914E
:100D4000340230913502232BC9F4909339028093F9
:100D500038028091340290913502892BA1F481E010
:100D600090E09093350280933402E0E2F1E08081DC
:100D7000877F8083808180628083B9CF90933702A0
:100D800080933602E6CF1092350210923402E0E2F0
:100D9000F1E080818F7D8083808188608083A7CF10
:100DA00097FB072E16F4009407D077FD09D00E9418
:100DB000F30607FC05D03EF4909581959F4F08956A
:100DC000709561957F4F0895A29FB001B39FC001B8
:100DD000A39F700D811D1124911DB29F700D811D67
:100DE0001124911D0895AA1BBB1B51E107C0AA1F26
:100DF000BB1FA617B70710F0A61BB70B881F991FBC
:100E00005A95A9F780959095BC01CD010895F89465
:020E1000FFCF12
:100E1200FF40777C395E79713D74060E38373F7337
:100E2200316D783E003F065B4F666D7D077F6F0038
:020E3200670057
:00000001FF
