:100000000C9472000C944E050C9493000C94930085
:100010000C9493000C9493000C9493000C94930014
:100020000C9493000C9493000C9493000C94930004
:100030000C9493000C9493000C9493000C949300F4
:100040000C9493000C9493000C9493000C949300E4
:100050000C9493000C9493000C9493000C949300D4
:100060000C9493000C9493000C9493000C949300C4
:100070000C9493000C9493000C9493000C949300B4
:100080000C9493000C9493000C9493000C940E0623
:100090000C946E060C9493000C9493000C949300B3
:1000A0000C9493000C9493000C9493000C94930084
:1000B0000C9493000C94FC050C94D3060C949300C0
:1000C0000C9493000C9493000C94BF060C94930032
:1000D0000C9493000C9493000C9493000C94930054
:1000E0000C94930011241FBECFEFD1E2DEBFCDBF31
:1000F00000E00CBF12E0A0E0B2E0EEE0FFE000E0C4
:100100000BBF02C007900D92A232B107D9F722E0CF
:10011000A2E2B2E001C01D92AE33B207E1F70E9445
:100120000C030C9485070C9400009093C5008093F9
:10013000C40088E08093C10086E08093C2000895E7
:10014000E0ECF0E0908195FFFDCF8093C60008952C
:10015000CF93DF93C82FD92F8881882331F0219640
:100160000E94A00089918111FBCFDF91CF9108956A
:10017000EAE0F1E0808180688083EBE0F1E080815B
:100180008068808380818064808380818F77808392
:100190000895EAE0F1E0808180688083EBE0F1E09F
:1001A00080818F7B80838081806480838081806870
:1001B00080830895EAE0F1E090819068908328E0E0
:1001C00030E0EBE0F1E00CC090819F77908390816C
:1001D000906490838695215031092115310549F0AD
:1001E00090819F7B908380FFEFCF90819068908378
:1001F000EECFEBE0F1E080818F7B808380818064B3
:1002000080830895CF93C82F0E94B8008C2F8770E9
:1002100088680E94DA000E94C900CF910895EF9289
:10022000FF921F93CF93DF93D82FC92F0E94B8005E
:1002300080E40E94DA000E94C90013EC0F2EFAE05D
:10024000EF2EF12CF02D0E94B800812F0E94DA00D1
:100250008D2F9C2FB7010E944E07D62FC72FFC0170
:10026000EC5EFD4F80810E94DA000E94C9001150AF
:100270001F3B49F7DF91CF911F91FF90EF900895B9
:100280001F93CF93DF93C82FD92F162F0E94B8004A
:1002900080EC810F0E94DA00C050DE4F88810E94FE
:1002A000DA000E94C900DF91CF911F910895EAE022
:1002B000F1E0808180688083808180648083EBE0CE
:1002C000F1E080818068808380818064808387E022
:1002D0000E940201089560E083E190E00E944001E5
:1002E00061E083E090E00E94400162E086E090E0FF
:1002F0000E94400163E087E090E00E944001089581
:1003000060E083E190E00E94400161E086E090E0DF
:100310000E94400162E08DE090E00E94400163E0B5
:100320008BE090E00E944001089560E083E190E05E
:100330000E94400161E083E090E00E94400162E0A1
:100340008CE090E00E94400163E081E190E00E9437
:100350004001089560E081E190E00E94400161E089
:1003600082E190E00E94400162E08FE090E00E9414
:10037000400163E08CE090E00E944001089560E05D
:1003800084E090E00E94400161E089E090E00E94FA
:10039000400162E080E190E00E94400163E081E181
:1003A00090E00E944001089560E083E190E00E94A7
:1003B000400161E08EE090E00E94400162E081E057
:1003C00090E00E94400163E083E090E00E944001E1
:1003D0000895882319F00E94800108950E94D40195
:1003E000089560E08BE090E00E94400161E085E0CC
:1003F00090E00E94400162E086E090E00E944001AF
:1004000063E081E190E00E944001089560E08FE0A8
:1004100090E00E94400161E087E090E00E9440018E
:1004200062E088E090E00E94400163E081E190E0BA
:100430000E9440010895882319F00E940602089541
:100440000E94F101089560E083E190E00E94400184
:1004500061E083E190E00E94400162E087E090E08B
:100460000E94400163E08DE090E00E944001089509
:1004700060E083E190E00E94400161E085E090E06F
:100480000E94400162E08CE090E00E94400163E045
:1004900084E090E00E944001089560E080E190E0F7
:1004A0000E94400161E08FE090E00E94400162E024
:1004B00083E090E00E94400163E088E090E00E94C9
:1004C0004001089560E080E190E00E94400161E019
:1004D00081E190E00E94400162E08DE090E00E94A6
:1004E000400163E08EE090E00E9440010895809119
:1004F000340290913502019791F1809134029091EC
:100500003502813A910571F1809134029091350262
:10051000813B910551F18091340290913502823BEB
:10052000910531F18091340290913502813D910520
:1005300011F18091340290913502823D9105F1F0E4
:100540008091340290913502833D9105D1F08091E4
:100550003402909135028F3F9105B1F008950E94C9
:100560004903CBCF0E94B003CFCF0E947D04D3CFED
:100570000E940C04D7CF0E94E704DBCF0E9406053F
:10058000DFCF0E942505E3CF0E943503E7CF399ADC
:100590003D9A3B9A3F9A08958091260290912702B6
:1005A000892B49F4419A439A81E090E09093270285
:1005B0008093260208954198439880E090E0F6CF1A
:1005C0008091240290912502892B49F4459A479AFB
:1005D00081E090E09093250280932402089545984D
:1005E000479880E090E0F6CF80912202909123021C
:1005F000892B59F4459A479A419A439A81E090E0B1
:100600009093230280932202089545984798419839
:10061000439880E090E0F4CF0E9444050E94BB051F
:100620000E94BA060E944D060E9461060E94C702FF
:1006300078940E947702FDCF809138029091390220
:1006400020913A0230913B02820F931F0D969093B6
:1006500029028093280208958EE794E00E94C9053C
:100660008EE794E00E94C205089580E090E00E9429
:10067000C90580E090E00E94C2050895262F372F1B
:10068000281739070CF40197821793070CF4019689
:1006900008950E9446068091320290913302892B80
:1006A000B9F00E943503109233021092320208957D
:1006B00081E090E00E94590681E090E0909333023F
:1006C000809332028091320290913302892B49F754
:1006D00080913802909139024A9754F780913A02FA
:1006E00090913B024A9724F720913A0230913B02C5
:1006F000809138029091390228173907F9F020913A
:100700003A0230913B02809138029091390282176F
:100710009307ECF0209138023091390280913A022F
:1007200090913B02821793076CF681E796E00E9456
:10073000C2058FE794E00E94C905C4CF8EE794E01C
:100740000E94C9058EE794E00E94C205D8CF81E7D8
:1007500096E00E94C9058FE794E00E94C205DACFB7
:100760000E943F0621C020913A0230913B028091C5
:100770003802909139022817390799F120913A02ED
:1007800030913B0280913802909139022817390745
:100790008CF1209138023091390280913A02909187
:1007A0003B02281739077CF180913A0290913B0275
:1007B0004E97CCF280913802909139024E979CF27C
:1007C0008091320290913302892B69F20E943503A5
:1007D000109233021092320281E090E00E9459069A
:1007E00008958EE794E00E94C9058EE794E00E9488
:1007F000C205DACF81E796E00E94C9058FE794E051
:100800000E94C205C6CF81E796E00E94C2058FE72D
:1008100094E00E94C905C8CF0E94CC020E9429061C
:100820000E94200680912C0290912D02843D9741D8
:1008300048F40E942C0380912C0290912D02843D5B
:100840009741B8F30E9420060E94D00580912C02A7
:1008500090912D028E32994048F40E942C03809191
:100860002C0290912D028E329940B8F30E94D0054F
:100870000E94200680912C0290912D028C37954188
:1008800048F40E942C0380912C0290912D028C3709
:100890009541B8F30E94D0050E94200680912C0259
:1008A00090912D028E32994048F40E942C03809141
:1008B0002C0290912D028E329940B8F30E94D005FF
:1008C0000E9420060E942C038091380290913902E8
:1008D000409744F00E942C03809138029091390295
:1008E0004097C4F70E9435030E94340681E090E0EF
:1008F0000E9459060E94CC0208950E94E0020E94C4
:1009000029060E94200680912C0290912D02843DA0
:10091000974148F40E942C0380912C0290912D0263
:10092000843D9741B8F30E9420060E94E205809121
:100930002C0290912D028A3C984048F40E942C038E
:1009400080912C0290912D028A3C9840B8F30E942D
:10095000E2050E94200680912C0290912D02803E9B
:10096000954148F40E942C0380912C0290912D0215
:10097000803E9541B8F30E94E2050E9420068091D6
:100980002C0290912D028A3C984048F40E942C033E
:1009900080912C0290912D028A3C9840B8F30E94DD
:1009A000E2050E9434060E942C0380913802909147
:1009B00039020F974CF00E94350381E090E00E94CD
:1009C00059060E94E00208950E943503F4CF0E9468
:1009D000CC020E9429060E9420060E94E205809116
:1009E0002C0290912D028E32994048F40E942C03E3
:1009F00080912C0290912D028E329940B8F30E9482
:100A0000E2050E9434060E94CC0208950E94E00292
:100A10000E9429060E9420060E94D00580912C0287
:100A200090912D028E32994048F40E942C038091BF
:100A30002C0290912D028E329940B8F30E94D0057D
:100A40000E9434060E94E00208950E94E0020E9483
:100A500029060E9420060E94D00580912C029091C8
:100A60002D028C35924148F40E942C0380912C0277
:100A700090912D028C359241B8F30E94D0050E94CE
:100A800034060E94E00208955098589AE89AE9E6E0
:100A9000F0E0808181608083789408951F920F92A6
:100AA0000FB60F9211240BB60F922F933F934F93D3
:100AB0005F936F937F938F939F93AF93BF93EF93C6
:100AC000FF93489B06C00E9435030E94F402489998
:100AD000FACF0699F6CF0E94F402FF91EF91BF91F1
:100AE000AF919F918F917F916F915F914F913F91C6
:100AF0002F910F900BBE0F900FBE0F901F90189567
:100B00006B9AE1E0F1E08081886080839D9A80812A
:100B1000806180837398E2E0F1E08081877F808349
:100B2000A59A80818F7E808308951092900082E044
:100B3000809391001092A0008093A100089582E814
:100B4000809390008AE18093910081E090E09093FF
:100B50009900809398007894089582E88093A0008B
:100B60008AE18093A10081E090E09093A9008093B6
:100B7000A800789408950E94AD050E949F050E94E8
:100B800080050895282F392F3093970020939600E1
:100B90000895282F392F3093A7002093A600089599
:100BA0008091300290913102892B41F4A59881E027
:100BB00090E090933102809330020895A59A80E0EE
:100BC00090E0F7CF80912E0290912F02892B61F453
:100BD000E2E0F1E080818061808381E090E09093A9
:100BE0002F0280932E020895E2E0F1E080818F7E53
:100BF000808380E090E0F3CF8F938FB78F939F93A4
:100C000080912C0290912D02019690932D02809359
:100C10002C029F918F918FBF8F9118958F938FB7D3
:100C20008F939F9380912A0290912B02019690932B
:100C30002B0280932A029F918F918FBF8F911895DD
:100C400010922D0210922C0210922B0210922A0266
:100C50000895E2E7F0E0808181608083E1E7F0E0E1
:100C60008081816080830895E2E7F0E080818E7F5B
:100C70008083E1E7F0E080818E7F80830895A598EE
:100C8000E2E0F1E08081806180830895A59AE2E04E
:100C9000F1E080818F7E808308951092CD0087E6F9
:100CA0008093CC0088E98093C90086E08093CA00D5
:100CB0000895E8ECF0E0908195FFFDCF8093CE00A1
:100CC00008958091C800882344F4AEECB0E0E8ECCD
:100CD000F0E08C9180818823E4F308951F921FB681
:100CE0001F9211248F939F938091CE0090E0909358
:100CF0003502809334028F3F910531F09F918F919F
:100D00001F901FBE1F90189581E090E090933302D2
:100D100080933202F3CF8BE2809320018AE58093A7
:100D2000210181E2809373008FEF9FEF909329015F
:100D30008093280184E190E090932B0180932A0115
:100D400090932D0180932C0178940895EAE0F1E0CE
:100D5000808180618083808180628083ABE0B1E0AC
:100D60008C918F7E8C938C918F7D8C9380818D7FE5
:100D7000808308950E94A6060E948B0608958F9393
:100D80008FB78F938BB78F93EF93FF93E1E2F1E0EF
:100D9000808180648083FF91EF918F918BBF8F91D1
:100DA0008FBF8F9118950F920FB60F921F9211243B
:100DB0002F932BB72F933F936F937F938F939F9393
:100DC000AF93BF93EF93FF938091210186FF1EC0E5
:100DD000809126019091270190933D0280933C02DF
:100DE000E1E2F1E080818F7B8083FF91EF91BF9101
:100DF000AF919F918F917F916F913F912F912BBFD9
:100E00002F911F900F900FBE0F90189520912601E3
:100E10003091270180913C0290913D02281B390BB3
:100E2000A9E0BCE80E9462070024880F991F001CFB
:100E3000880F991F001C892F902D20913602309128
:100E40003702232BC9F490933B0280933A0280919E
:100E5000360290913702892BA1F481E090E09093C3
:100E6000370280933602E0E2F1E08081877F808361
:100E7000808180628083B9CF909339028093380259
:100E8000E6CF1092370210923602E0E2F1E0808164
:100E90008F7D8083808188608083A7CF97FB072E1A
:100EA00016F4009407D077FD09D00E94710707FC63
:100EB00005D03EF4909581959F4F0895709561956A
:100EC0007F4F0895A29FB001B39FC001A39F700DF3
:100ED000811D1124911DB29F700D811D1124911D42
:100EE0000895AA1BBB1B51E107C0AA1FBB1FA61771
:100EF000B70710F0A61BB70B881F991F5A95A9F7C3
:0E0F000080959095BC01CD010895F894FFCF27
:100F0E0040777C395E79713D74060E38373F733108
:100F1E006D783E003F065B4F666D7D077F6F006705
:020F2E000000C1
:00000001FF
