:100000000C9472000C947A040C9493000C9493005A
:100010000C9493000C9493000C9493000C94930014
:100020000C9493000C9493000C9493000C94930004
:100030000C9493000C9493000C9493000C949300F4
:100040000C9493000C9493000C9493000C949300E4
:100050000C9493000C9493000C9493000C949300D4
:100060000C9493000C9493000C9493000C949300C4
:100070000C9493000C9493000C9493000C949300B4
:100080000C9493000C9493000C9493000C943605FC
:100090000C94D0050C9493000C9493000C94930052
:1000A0000C9493000C9493000C9493000C94930084
:1000B0000C9493000C9424050C9479060C949300F2
:1000C0000C9493000C9493000C9465060C9493008C
:1000D0000C9493000C9493000C9493000C94930054
:1000E0000C94930011241FBECFEFD1E2DEBFCDBF31
:1000F00000E00CBF12E0A0E0B2E0EAE5FEE000E0C4
:100100000BBF02C007900D92A232B107D9F722E0CF
:10011000A2E2B2E001C01D92A334B207E1F70E944F
:1001200091020C942B070C940000EAE0F1E080812E
:1001300080688083EBE0F1E080818068808380814B
:100140008064808380818F7780830895EAE0F1E086
:10015000808180688083EBE0F1E080818F7B808309
:100160008081806480838081806880830895EAE054
:10017000F1E090819068908328E030E0EBE0F1E0DE
:100180000CC090819F779083908190649083869536
:10019000215031092115310549F090819F7B9083D1
:1001A00080FFEFCF908190689083EECFEBE0F1E09D
:1001B00080818F7B80838081806480830895CF934A
:1001C000C82F0E9495008C2F877088680E94B70006
:1001D0000E94A600CF910895EF92FF921F93CF93B4
:1001E000DF93D82FC92F0E94950080E40E94B700AA
:1001F0000E94A60013EC0F2EFAE0EF2EF12CF02D4A
:100200000E949500812F0E94B7008D2F9C2FB7016F
:100210000E94F406D62FC72FFC01EC5EFD4F8081B3
:100220000E94B7000E94A60011501F3B49F7DF91C2
:10023000CF911F91FF90EF9008951F93CF93DF937D
:10024000C82FD92F162F0E94950080EC810F0E9495
:10025000B700C050DE4F88810E94B7000E94A60000
:10026000DF91CF911F910895EAE0F1E080818068ED
:100270008083808180648083EBE0F1E0808180680E
:10028000808380818064808387E00E94DF000895FE
:1002900060E083E190E00E941D0161E083E090E076
:1002A0000E941D0162E086E090E00E941D0163E073
:1002B00087E090E00E941D01089560E083E190E0F6
:1002C0000E941D0161E086E090E00E941D0162E055
:1002D0008DE090E00E941D0163E08BE090E00E94C1
:1002E0001D01089560E083E190E00E941D0161E03E
:1002F00083E090E00E941D0162E08CE090E00E94AB
:100300001D0163E081E190E00E941D01089560E01D
:1003100081E190E00E941D0161E082E190E00E9495
:100320001D0162E08FE090E00E941D0163E08CE01F
:1003300090E00E941D01089560E084E090E00E943A
:100340001D0161E089E090E00E941D0162E080E112
:1003500090E00E941D0163E081E190E00E941D0198
:10036000089560E083E190E00E941D0161E08EE06D
:1003700090E00E941D0162E081E090E00E941D017A
:1003800063E083E090E00E941D010895882319F046
:100390000E945D0108950E94B101089560E08BE024
:1003A00090E00E941D0161E085E090E00E941D0147
:1003B00062E086E090E00E941D0163E081E190E050
:1003C0000E941D01089560E08FE090E00E941D01F1
:1003D00061E087E090E00E941D0162E088E090E02B
:1003E0000E941D0163E081E190E00E941D010895DB
:1003F000882319F00E94E30108950E94CE01089518
:1004000060E083E190E00E941D0161E083E190E003
:100410000E941D0162E087E090E00E941D0163E000
:100420008DE090E00E941D01089560E083E190E07E
:100430000E941D0161E085E090E00E941D0162E0E4
:100440008CE090E00E941D0163E084E090E00E9457
:100450001D01089560E080E190E00E941D0161E0CF
:100460008FE090E00E941D0162E083E090E00E9436
:100470001D0163E088E090E00E941D01089560E0A6
:1004800080E190E00E941D0161E081E190E00E9426
:100490001D0162E08DE090E00E941D0163E08EE0AE
:1004A00090E00E941D0108958091330290913402E2
:1004B000019739F080913302909134020297F9F05C
:1004C000089580913502909136028038910588F424
:1004D00080913502909136028F37910568F08091B6
:1004E0003502909136028F37910521F70E94B402B0
:1004F000E1CF0E94C802ECCF0E942A03F0CF809186
:10050000350290913602019749F080913502909121
:1005100036020297A9F60E94FF03D2CF0E948C03F5
:10052000F4CF0E94E3040E9460060E9475050E94B9
:10053000BA057894FFCF80913D0290913E022091C0
:100540003F0230914002820F931F0D969093230239
:100550008093220208958EE794E00E94F1048EE7D2
:1005600094E00E94EA04089580E090E00E94F10483
:1005700080E090E00E94EA040895262F372F281784
:1005800039070CF40197821793070CF4019608952C
:100590000E946E0542C08EE794E00E94F1048EE74F
:1005A00094E00E94EA0439C081E796E00E94F104D9
:1005B0008FE794E00E94EA0425C081E796E00E945C
:1005C000EA048FE794E00E94F10427C080912C0296
:1005D00090912D02892B69F520913F0230914002C4
:1005E00080913D0290913E0228173907A1F2209197
:1005F0003F023091400280913D0290913E0282176D
:10060000930794F220913D0230913E0280913F0287
:10061000909140028217930784F280913F0290915B
:1006200040024E979CF280913D0290913E024E977F
:100630006CF20E94B40210922D0210922C0220E063
:1006400030E040E050E060E070E081E090E00E9447
:10065000890508950E94670542C08EE794E00E94D4
:10066000F1048EE794E00E94EA0439C081E796E045
:100670000E94F1048FE794E00E94EA0425C081E71C
:1006800096E00E94EA048FE794E00E94F10427C0FC
:1006900080912C0290912D02892B69F520913F02C7
:1006A0003091400280913D0290913E022817390717
:1006B000A1F220913F023091400280913D02909141
:1006C0003E022817390794F220913D0230913E02F4
:1006D00080913F02909140022817390784F280915F
:1006E0003F02909140024E979CF280913D02909182
:1006F0003E024E976CF20E94B40210922D021092AC
:100700002C0220E030E040E050E060E070E081E06A
:1007100090E00E94890508950E9451050E944805B5
:100720008091260290912702843D974148F40E94CF
:10073000AB028091260290912702843D9741B8F345
:100740000E9448050E94F804809126029091270299
:100750008E32994048F40E94AB028091260290911B
:1007600027028E329940B8F30E94F8040E9448058F
:1007700080912602909127028C37954148F40E947F
:10078000AB0280912602909127028C379541B8F3F5
:100790000E94F8040E944805809126029091270249
:1007A0008E32994048F40E94AB02809126029091CB
:1007B00027028E329940B8F30E94F8040E9448053F
:1007C0000E94AB0280913D0290913E02409744F01E
:1007D0000E94AB0280913D0290913E024097C4F787
:1007E0000E94B4020E945C0520E030E040E050E04E
:1007F00060E070E081E090E00E94890508950E9429
:1008000051050E9448058091260290912702843D5F
:10081000974148F40E94AB028091260290912702F2
:10082000843D9741B8F30E9448050E940A058091D3
:100830002602909127028E32994048F40E94AB0222
:1008400080912602909127028E329940B8F30E943F
:100850000A050E94480580912602909127028C3754
:10086000954148F40E94AB028091260290912702A4
:100870008C379541B8F30E940A050E944805809183
:100880002602909127028E32994048F40E94AB02D2
:1008900080912602909127028E329940B8F30E94EF
:1008A0000A050E945C050E94AB0280913D02909176
:1008B0003E02409744F00E94AB0280913D0290912D
:1008C0003E024097C4F70E94B40220E030E040E0CE
:1008D00050E060E070E081E090E00E9489050895BA
:1008E0005098589AE89AE9E6F0E080818160808328
:1008F000789408951F920F920FB60F9211240BB6A1
:100900000F922F933F934F935F936F937F938F93A8
:100910009F93AF93BF93EF93FF93489B04C00E94B4
:10092000B4024899FCCF0699F8CFFF91EF91BF919F
:10093000AF919F918F917F916F915F914F913F9177
:100940002F910F900BBE0F900FBE0F901F90189518
:100950006B9AE1E0F1E08081886080839D9A8081DC
:10096000806180837398E2E0F1E08081877F8083FB
:10097000A59A80818F7E808308951092900082E0F6
:10098000809391001092A0008093A100089582E8C6
:10099000809390008AE18093910081E090E09093B1
:1009A0009900809398007894089582E88093A0003D
:1009B0008AE18093A10081E090E09093A900809368
:1009C000A800789408950E94D5040E94C7040E944C
:1009D000A8040895282F392F30939700209396006C
:1009E0000895282F392F3093A7002093A60008954B
:1009F00080912A0290912B02892B41F4A59881E0E5
:100A000090E090932B0280932A020895A59A80E0AB
:100A100090E0F7CF8091280290912902892B61F410
:100A2000E2E0F1E080818061808381E090E090935A
:100A30002902809328020895E2E0F1E080818F7E10
:100A4000808380E090E0F3CF8F938FB78F939F9355
:100A5000809126029091270201969093270280931D
:100A600026029F918F918FBF8F9118958F938FB78B
:100A70008F939F93809124029091250201969093E9
:100A80002502809324029F918F918FBF8F9118959B
:100A90001092270210922602109225021092240230
:100AA0000895E2E7F0E0808181608083E1E7F0E093
:100AB0008081816080830895E2E7F0E080818E7F0D
:100AC0008083E1E7F0E080818E7F80830895A598A0
:100AD000E2E0F1E08081806180830895A59AE2E000
:100AE000F1E080818F7E808308951092CD0087E6AB
:100AF0008093CC0088E98093C90086E08093CA0087
:100B00000895E8ECF0E0908195FFFDCF8093CE0052
:100B10000895EF92FF920F931F93CF93DF9300D02E
:100B200000D00F920F92CDB7DEB79A8389837C8372
:100B30006B835E834D8338872F838E010F5F1F4F3A
:100B40007E0189E0E80EF11CF801819191918F01FD
:100B50000E9481050E151F05B9F728960FB6F89467
:100B6000DEBF0FBECDBFDF91CF911F910F91FF90E0
:100B7000EF9008958091C800882344F4AEECB0E073
:100B8000E8ECF0E08C9180818823E4F30895E8ECB0
:100B9000F0E080818823ECF78091CE0090E008950A
:100BA0001F920F920FB60F9211240BB60F922F9334
:100BB0003F934F935F936F937F938F939F93AF93E5
:100BC000BF93EF93FF938091CE00E0912E0291E0CE
:100BD0009E0F90932E02F0E0E15DFD4F80838091A7
:100BE0002E028430E8F010922E02AFE2B2E08C9137
:100BF000E3E3F2E090E09183808311968C9111976A
:100C000090E09383828312968C91129790E0958363
:100C1000848313968C9190E0978386830E9454027C
:100C200080913302909134028F3F910599F0FF91AA
:100C3000EF91BF91AF919F918F917F916F915F9154
:100C40004F913F912F910F900BBE0F900FBE0F90C1
:100C50001F90189581E090E090932D0280932C02D4
:100C6000E6CF8BE2809320018AE58093210181E227
:100C7000809373008FEF9FEF909329018093280159
:100C800084E190E090932B0180932A0190932D01B1
:100C900080932C0178940895EAE0F1E080818061EE
:100CA0008083808180628083ABE0B1E08C918F7E15
:100CB0008C938C918F7D8C9380818D7F8083089520
:100CC0000E944C060E94310608958F938FB78F9330
:100CD0008BB78F93EF93FF93E1E2F1E08081806423
:100CE0008083FF91EF918F918BBF8F918FBF8F91F9
:100CF00018950F920FB60F921F9211242F932BB7B6
:100D00002F933F936F937F938F939F93AF93BF9353
:100D1000EF93FF938091210186FF1EC080912601F1
:100D2000909127019093420280934102E1E2F1E029
:100D300080818F7B8083FF91EF91BF91AF919F91D5
:100D40008F917F916F913F912F912BBF2F911F908A
:100D50000F900FBE0F90189520912601309127011A
:100D60008091410290914202281B390BA9E0BCE816
:100D70000E9408070024880F991F001C880F991FE4
:100D8000001C892F902D20913B0230913C02232B97
:100D9000C9F49093400280933F0280913B0290916E
:100DA0003C02892BA1F481E090E090933C02809377
:100DB0003B02E0E2F1E08081877F80838081806276
:100DC0008083B9CF90933E0280933D02E6CF10928C
:100DD0003C0210923B02E0E2F1E080818F7D808353
:100DE000808188608083A7CF97FB072E16F400943C
:100DF00007D077FD09D00E94170707FC05D03EF405
:100E0000909581959F4F0895709561957F4F0895B6
:100E1000A29FB001B39FC001A39F700D811D11243B
:100E2000911DB29F700D811D1124911D0895AA1B63
:100E3000BB1B51E107C0AA1FBB1FA617B70710F0C5
:100E4000A61BB70B881F991F5A95A9F780959095F7
:0A0E5000BC01CD010895F894FFCF16
:100E5A0040777C395E79713D74060E38373F7331BD
:100E6A006D783E003F065B4F666D7D077F6F0067BA
:020E7A00000076
:00000001FF
