:100000000C9472000C94A4020C9493000C94930032
:100010000C9493000C9493000C9493000C94930014
:100020000C9493000C9493000C9493000C94930004
:100030000C9493000C9493000C9493000C949300F4
:100040000C9493000C9493000C9493000C949300E4
:100050000C9493000C9493000C9493000C949300D4
:100060000C9493000C9493000C9493000C949300C4
:100070000C9493000C9493000C9493000C949300B4
:100080000C9493000C9493000C9493000C946003D4
:100090000C940E040C9493000C9493000C94930015
:1000A0000C9493000C9493000C9493000C94930084
:1000B0000C9493000C944E030C9480040C949300C5
:1000C0000C9493000C9493000C946C040C94930087
:1000D0000C9493000C9493000C9493000C94930054
:1000E0000C94930011241FBECFEFD1E2DEBFCDBF31
:1000F00000E00CBF12E0A0E0B2E0E8E1FAE000E0CE
:100100000BBF02C007900D92A230B107D9F722E0D1
:10011000A2E0B2E001C01D92AC31B207E1F70E944B
:10012000D2000C940A050C94000080910C0290916E
:100130000D02019739F080910C0290910D02029707
:10014000F9F0089580910E0290910F028038910588
:1001500088F480910E0290910F028F37910568F01C
:1001600080910E0290910F028F37910521F70E9426
:10017000F600E1CF0E940A01ECCF0E946001F0CFAF
:1001800080910E0290910F02019749F080910E022A
:1001900090910F020297A9F60E942902D2CF0E94E5
:1001A000B601F4CF0E949A020E940D030E946704D8
:1001B0000E949F030E94E403FFCF8091160290915A
:1001C00017022091180230911902820F931F0D9689
:1001D000909303028093020208958EE794E00E94B8
:1001E0001B038EE794E00E941403089580E090E0E2
:1001F0000E941B0380E090E00E9414030895262FC4
:10020000372F281739070CF40197821793070CF43E
:10021000019608950E94980321C020911802309100
:10022000190280911602909117022817390769F177
:1002300020911802309119028091160290911702B4
:10024000281739075CF1209116023091170280912E
:10025000180290911902281739074CF18091180261
:10026000909119024E97CCF280911602909117024C
:100270004E979CF220E030E040E050E060E070E01B
:1002800081E090E00E94B30308958EE794E00E941D
:100290001B038EE794E00E941403E0CF81E796E011
:1002A0000E941B038FE794E00E941403CCCF81E7E8
:1002B00096E00E9414038FE794E00E941B03CECFC8
:1002C0000E94910321C0209118023091190280915F
:1002D0001602909117022817390769F12091180228
:1002E0003091190280911602909117022817390750
:1002F0005CF12091160230911702809118029091C2
:100300001902281739074CF18091180290911902AF
:100310004E97CCF280911602909117024E979CF264
:1003200020E030E040E050E060E070E081E090E00C
:100330000E94B30308958EE794E00E941B038EE7AA
:1003400094E00E941403E0CF81E796E00E941B0333
:100350008FE794E00E941403CCCF81E796E00E94DF
:1003600014038FE794E00E941B03CECF0E947B030F
:100370000E9472038091060290910702843090419E
:1003800048F40E94ED0080910602909107028430AB
:100390009041B8F30E9472030E94220380910602EA
:1003A000909107028839984048F40E94ED008091AE
:1003B00006029091070288399840B8F30E94220300
:1003C0000E94720380910602909107028C3795413A
:1003D00048F40E94ED0080910602909107028C374C
:1003E0009541B8F30E9422030E9472038091060295
:1003F000909107028839984048F40E94ED0080915E
:1004000006029091070288399840B8F30E942203AF
:100410000E9472030E94ED008091160290911702D3
:10042000409744F00E94ED008091160290911702CF
:100430004097C4F70E94F6000E94860320E030E057
:1004400040E050E060E070E081E090E00E94B303A3
:1004500008950E947B030E9472038091060290918E
:1004600007028430904148F40E94ED00809106021A
:100470009091070284309041B8F30E9472030E9469
:10048000340380910602909107028839984048F41D
:100490000E94ED00809106029091070288399840F1
:1004A000B8F30E9434030E94720380910602909177
:1004B00007028C37954148F40E94ED0080910602B6
:1004C000909107028C379541B8F30E9434030E9443
:1004D000720380910602909107028839984048F48F
:1004E0000E94ED00809106029091070288399840A1
:1004F000B8F30E9434030E9486030E94ED008091AD
:10050000160290911702409744F00E94ED008091EE
:100510001602909117024097C4F70E94F60020E05F
:1005200030E040E050E060E070E081E090E00E9468
:10053000B30308955098589AE89AE9E6F0E080816C
:1005400081608083789408951F920F920FB60F9266
:1005500011240BB60F922F933F934F935F936F939A
:100560007F938F939F93AF93BF93EF93FF93489B9A
:1005700004C00E94F6004899FCCF0699F8CFFF917D
:10058000EF91BF91AF919F918F917F916F915F910B
:100590004F913F912F910F900BBE0F900FBE0F9078
:1005A0001F9018956B9AE1E0F1E08081886080836C
:1005B0009D9A8081806180837398E2E0F1E0808180
:1005C000877F8083A59A80818F7E80830895109293
:1005D000900082E0809391001092A0008093A1008F
:1005E000089582E8809390008AE18093910081E0F1
:1005F00090E090939900809398007894089582E811
:100600008093A0008AE18093A10081E090E0909324
:10061000A9008093A800789408950E94FF020E9488
:10062000F1020E94D2020895282F392F30939700AB
:10063000209396000895282F392F3093A7002093F8
:10064000A600089580910A0290910B02892B41F433
:10065000A59881E090E090930B0280930A020895A0
:10066000A59A80E090E0F7CF80910802909109026E
:10067000892B61F4E2E0F1E080818061808381E098
:1006800090E090930902809308020895E2E0F1E07F
:1006900080818F7E808380E090E0F3CF8F938FB74F
:1006A0008F939F93809106029091070201969093F9
:1006B0000702809306029F918F918FBF8F911895AB
:1006C0008F938FB78F939F9380910402909105022F
:1006D000019690930502809304029F918F918FBFA2
:1006E0008F9118951092070210920602109205023F
:1006F000109204020895E2E7F0E080818160808337
:10070000E1E7F0E08081816080830895E2E7F0E036
:1007100080818E7F8083E1E7F0E080818E7F80831F
:100720000895A598E2E0F1E08081806180830895DA
:10073000A59AE2E0F1E080818F7E80830895109297
:10074000CD0087E68093CC0088E98093C90086E0DD
:100750008093CA000895E8ECF0E0908195FFFDCF0A
:100760008093CE000895EF92FF920F931F93CF9343
:10077000DF9300D000D00F920F92CDB7DEB79A83EF
:1007800089837C836B835E834D8338872F838E01BF
:100790000F5F1F4F7E0189E0E80EF11CF801819187
:1007A00091918F010E94AB030E151F05B9F7289692
:1007B0000FB6F894DEBF0FBECDBFDF91CF911F9172
:1007C0000F91FF90EF9008958091C800882344F422
:1007D000AEECB0E0E8ECF0E08C9180818823E4F3AB
:1007E0000895E8ECF0E080818823ECF78091CE005A
:1007F00090E008950F931F93CF93DF93CCE0D2E066
:1008000004E112E00E94F10389939993C017D10784
:10081000C9F7DF91CF911F910F9108951F920F9209
:100820000FB60F9211240BB60F922F933F934F9355
:100830005F936F937F938F939F93AF93BF93EF9348
:10084000FF930E94FA030E949500FF91EF91BF91E0
:10085000AF919F918F917F916F915F914F913F9158
:100860002F910F900BBE0F900FBE0F901F901895F9
:100870008BE2809320018AE58093210181E28093BD
:1008800073008FEF9FEF909329018093280184E1FB
:1008900090E090932B0180932A0190932D018093F7
:1008A0002C0178940895EAE0F1E0808180618083F2
:1008B000808180628083ABE0B1E08C918F7E8C93ED
:1008C0008C918F7D8C9380818D7F808308950E9491
:1008D00053040E94380408958F938FB78F938BB77A
:1008E0008F93EF93FF93E1E2F1E080818064808356
:1008F000FF91EF918F918BBF8F918FBF8F91189543
:100900000F920FB60F921F9211242F932BB72F9394
:100910003F936F937F938F939F93AF93BF93EF9387
:10092000FF938091210186FF1EC080912601909146
:10093000270190931B0280931A02E1E2F1E080818B
:100940008F7B8083FF91EF91BF91AF919F918F91AA
:100950007F916F913F912F912BBF2F911F900F90FF
:100960000FBE0F901895209126013091270180919C
:100970001A0290911B02281B390BA9E0BCE80E94C7
:10098000FB040024880F991F001C880F991F001C6E
:10099000892F902D2091140230911502232BC9F438
:1009A0009093170280931602809114029091150281
:1009B000892BA1F481E090E09093150280931402BA
:1009C000E0E2F1E08081877F8083808180628083A4
:1009D000B9CF9093190280931802E6CF10921502B6
:1009E00010921402E0E2F1E080818F7D80838081AB
:1009F00088608083A7CFA29FB001B39FC001A39F4F
:100A0000700D811D1124911DB29F700D811D112447
:080A1000911D0895F894FFCF39
:020A1800670075
:00000001FF
