:100000000C9472000C94DC010C9486000C94860015
:100010000C9486000C9486000C9486000C94860048
:100020000C9486000C9486000C9486000C94860038
:100030000C9486000C9486000C9486000C94860028
:100040000C9486000C9486000C9486000C94860018
:100050000C9486000C9486000C9486000C94860008
:100060000C9486000C9486000C9486000C948600F8
:100070000C9486000C9486000C9486000C948600E8
:100080000C9486000C9486000C9486000C949802C4
:100090000C9486000C9486000C9486000C948600C8
:1000A0000C9486000C9486000C9486000C948600B8
:1000B0000C9486000C9486020C9411030C94860018
:1000C0000C9486000C9486000C94FD020C9486001F
:1000D0000C9486000C9486000C9486000C94860088
:1000E0000C94860011241FBECFEFD1E2DEBFCDBF3E
:1000F00000E00CBF22E0A0E0B2E001C01D92A231FE
:10010000B207E1F70E9488000C949B030C94000056
:10011000FFCF80910C0290910D0220910E02309140
:100120000F02820F931F0D9690930102809300029D
:1001300008958EE794E00E9453028EE794E00E94B7
:100140004C02089580E090E00E94530280E090E02D
:100150000E944C020895262F372F281739070CF4D8
:100160000197821793070CF40196089521C02091FE
:100170000E0230910F0280910C0290910D0228170F
:10018000390729F120910E0230910F0280910C0263
:1001900090910D02281739071CF120910C02309123
:1001A0000D0280910E0290910F02281739070CF171
:1001B00080910E0290910F024E97CCF280910C022A
:1001C00090910D024E979CF20E94A20008958EE736
:1001D00094E00E9453028EE794E00E944C02E8CF24
:1001E00081E796E00E9453028FE794E00E944C0260
:1001F000D4CF81E796E00E944C028FE794E00E9402
:100200005302D6CF0E94B3020E94AA028091040238
:10021000909105028430904148F40E9499008091A9
:1002200004029091050284309041B8F30E94AA0222
:100230000E945A02809104029091050288399840E8
:1002400048F40E9499008091040290910502883937
:100250009840B8F30E945A020E94AA0280910402B8
:10026000909105028C37954148F40E949900809145
:100270000402909105028C379541B8F30E945A020E
:100280000E94AA0280910402909105028839984048
:1002900048F40E94990080910402909105028839E7
:1002A0009840B8F30E945A020E94AA020E94990044
:1002B00080910C0290910D02409744F00E949900A9
:1002C00080910C0290910D024097C4F70E94A20009
:1002D0000E94BE0208950E94B3020E94AA02809169
:1002E0000402909105028430904148F40E949900E4
:1002F000809104029091050284309041B8F30E94ED
:10030000AA020E946C028091040290910502883931
:10031000984048F40E94990080910402909105024F
:1003200088399840B8F30E946C020E94AA0280911A
:100330000402909105028C37954148F40E9499007F
:1003400080910402909105028C379541B8F30E9488
:100350006C020E94AA0280910402909105028839E1
:10036000984048F40E9499008091040290910502FF
:1003700088399840B8F30E946C020E94BE020E9425
:10038000990080910C0290910D02409744F00E94D8
:10039000990080910C0290910D024097C4F70E9441
:1003A000A20008955098589AE89AE9E6F0E0808112
:1003B00081608083789408951F920F920FB60F92F8
:1003C00011240BB60F922F933F934F935F936F932C
:1003D0007F938F939F93AF93BF93EF93FF93489B2C
:1003E00004C00E94A2004899FCCF0699F8CFFF9163
:1003F000EF91BF91AF919F918F917F916F915F919D
:100400004F913F912F910F900BBE0F900FBE0F9009
:100410001F9018956B9AE1E0F1E0808188608083FD
:100420009D9A8081806180837398E2E0F1E0808111
:10043000877F8083A59880818F7E80830895109226
:10044000900082E0809391001092A0008093A10020
:10045000089582E8809390008AE18093910081E082
:1004600090E090939900809398007894089582E8A2
:100470008093A0008AE18093A10081E090E09093B6
:10048000A9008093A800789408950E9437020E94E2
:1004900029020E940A020895282F392F30939700CD
:1004A000209396000895282F392F3093A70020938A
:1004B000A60008958091080290910902892B41F4C9
:1004C000A59A81E090E09093090280930802089534
:1004D000A59880E090E0F7CF809106029091070206
:1004E000892B61F4E2E0F1E080818061808381E02A
:1004F00090E090930702809306020895E2E0F1E015
:1005000080818F7E808380E090E0F3CF8F938FB7E0
:100510008F939F938091040290910502019690938E
:100520000502809304029F918F918FBF8F91189540
:100530008F938FB78F939F938091020290910302C4
:10054000019690930302809302029F918F918FBF37
:100550008F911895109205021092040210920302D6
:10056000109202020895E2E7F0E0808181608083CA
:10057000E1E7F0E08081816080830895E2E7F0E0C8
:1005800080818E7F8083E1E7F0E080818E7F8083B1
:1005900008958BE2809320018AE58093210181E216
:1005A000809373008FEF9FEF909329018093280130
:1005B00084E190E090932B0180932A0190932D0188
:1005C00080932C0178940895EAE0F1E080818061C5
:1005D0008083808180628083ABE0B1E08C918F7EEC
:1005E0008C938C918F7D8C9380818D7F80830895F7
:1005F0000E94E4020E94C90208958F938FB78F93DF
:100600008BB78F93EF93FF93E1E2F1E080818064F9
:100610008083FF91EF918F918BBF8F918FBF8F91CF
:1006200018950F920FB60F921F9211242F932BB78C
:100630002F933F936F937F938F939F93AF93BF932A
:10064000EF93FF938091210186FF1EC080912601C8
:10065000909127019093110280931002E1E2F1E062
:1006600080818F7B8083FF91EF91BF91AF919F91AC
:100670008F917F916F913F912F912BBF2F911F9061
:100680000F900FBE0F9018952091260130912701F1
:100690008091100290911102281B390BA9E0BCE84F
:1006A0000E948C030024880F991F001C880F991F3B
:1006B000001C892F902D20910A0230910B02232BD0
:1006C000C9F490930D0280930C0280910A029091DC
:1006D0000B02892BA1F481E090E090930B028093B0
:1006E0000A02E0E2F1E08081877F8083808180627E
:1006F0008083B9CF90930F0280930E02E6CF1092C1
:100700000B0210920A02E0E2F1E080818F7D80838B
:10071000808188608083A7CFA29FB001B39FC00172
:10072000A39F700D811D1124911DB29F700D811D1D
:0A0730001124911D0895F894FFCFE5
:00000001FF
