:100000000C9472000C9404080C9493000C949300CC
:100010000C9493000C9493000C9493000C94930014
:100020000C9493000C9493000C9493000C94930004
:100030000C9493000C9493000C9493000C949300F4
:100040000C9493000C9493000C9493000C949300E4
:100050000C9493000C9493000C9493000C949300D4
:100060000C9493000C9493000C9493000C949300C4
:100070000C9493000C9493000C9493000C949300B4
:100080000C9493000C9493000C9493000C94A3088C
:100090000C9403090C9493000C9493000C9493001B
:1000A0000C9493000C9493000C9493000C94930084
:1000B0000C9493000C9491080C9468090C94930090
:1000C0000C9493000C9493000C9454090C9493009A
:1000D0000C9493000C9493000C9493000C94930054
:1000E0000C94930011241FBECFEFD1E2DEBFCDBF31
:1000F00000E00CBF12E0A0E0B2E0E8E3F4E100E0D1
:100100000BBF02C007900D92A232B107D9F722E0CF
:10011000A2E2B2E001C01D92AE33B207E1F70E9445
:1001200050030C941A0A0C9400009093C50080931D
:10013000C40088E08093C10086E08093C2000895E7
:10014000E0ECF0E0908195FFFDCF8093C60008952C
:10015000CF93DF93C82FD92F8881882331F0219640
:100160000E94A00089918111FBCFDF91CF9108956A
:10017000EAE0F1E0808180688083EBE0F1E080815B
:100180008068808380818064808380818F77808392
:100190000895EAE0F1E0808180688083EBE0F1E09F
:1001A00080818F7B80838081806480838081806870
:1001B00080830895EAE0F1E090819068908328E0E0
:1001C00030E0EBE0F1E00CC090819F77908390816C
:1001D000906490838695215031092115310549F0AD
:1001E00090819F7B908380FFEFCF90819068908378
:1001F000EECFEBE0F1E080818F7B808380818064B3
:1002000080830895CF93C82F0E94B8008C2F8770E9
:1002100088680E94DA000E94C900CF910895EF9289
:10022000FF921F93CF93DF93D82FC92F0E94B8005E
:1002300080E40E94DA000E94C90013EC0F2EFAE05D
:10024000EF2EF12CF02D0E94B800812F0E94DA00D1
:100250008D2F9C2FB7010E94E309D62FC72FFC01D9
:10026000EC5EFD4F80810E94DA000E94C9001150AF
:100270001F3B49F7DF91CF911F91FF90EF900895B9
:100280001F93CF93DF93C82FD92F162F0E94B8004A
:1002900080EC810F0E94DA00C050DE4F88810E94FE
:1002A000DA000E94C900DF91CF911F910895EAE022
:1002B000F1E0808180688083808180648083EBE0CE
:1002C000F1E080818068808380818064808387E022
:1002D0000E940201089560E083E190E00E944001E5
:1002E00061E083E090E00E94400162E086E090E0FF
:1002F0000E94400163E087E090E00E944001089581
:1003000060E083E190E00E94400161E086E090E0DF
:100310000E94400162E08DE090E00E94400163E0B5
:100320008BE090E00E944001089560E083E190E05E
:100330000E94400161E083E090E00E94400162E0A1
:100340008CE090E00E94400163E081E190E00E9437
:100350004001089560E081E190E00E94400161E089
:1003600082E190E00E94400162E08FE090E00E9414
:10037000400163E08CE090E00E944001089560E05D
:1003800084E090E00E94400161E089E090E00E94FA
:10039000400162E080E190E00E94400163E081E181
:1003A00090E00E944001089560E083E190E00E94A7
:1003B000400161E08EE090E00E94400162E081E057
:1003C00090E00E94400163E083E090E00E944001E1
:1003D0000895882319F00E94800108950E94D40195
:1003E000089560E08BE090E00E94400161E085E0CC
:1003F00090E00E94400162E086E090E00E944001AF
:1004000063E081E190E00E944001089560E08FE0A8
:1004100090E00E94400161E087E090E00E9440018E
:1004200062E088E090E00E94400163E081E190E0BA
:100430000E9440010895882319F00E940602089541
:100440000E94F101089560E083E190E00E94400184
:1004500061E083E190E00E94400162E087E090E08B
:100460000E94400163E08DE090E00E944001089509
:1004700060E083E190E00E94400161E085E090E06F
:100480000E94400162E08CE090E00E94400163E045
:1004900084E090E00E944001089560E080E190E0F7
:1004A0000E94400161E08FE090E00E94400162E024
:1004B00083E090E00E94400163E088E090E00E94C9
:1004C0004001089560E080E190E00E94400161E019
:1004D00081E190E00E94400162E08DE090E00E94A6
:1004E000400163E08EE090E00E9440010895809119
:1004F000340290913502019709F448C0809134028A
:1005000090913502029709F444C080913402909191
:100510003502813A910509F43FC0809134029091EF
:100520003502813B9105D9F18091340290913502D9
:10053000823B9105B9F18091340290913502813D61
:10054000910599F18091340290913502823D910597
:1005500079F18091340290913502833D910559F1F2
:100560008091340290913502843D910539F180915A
:100570003402909135028F3F910519F18091340238
:10058000909135028F3E9105F9F008950E948D03F8
:10059000B5CF0E94F403B9CF0E94CD04BECF0E9414
:1005A000BE05C2CF0E944D05C6CF0E942806CACF05
:1005B0000E944B06CECF0E946E06D2CF0E94BB0691
:1005C000D6CF0E947903DACF10923502109234020E
:1005D0000E9468070E946E060E9435070E947B07F2
:1005E0000E948E070E9428060E94A9070E94BB064F
:1005F0000E94C4070E9428060E94C4070E94C407E4
:100600000E94C4070E94C4070E9435070E94E107A8
:100610000E947903BACF399A3D9A3B9A3F9A08953E
:100620008091260290912702892B49F4419A439A9E
:1006300081E090E0909327028093260208954198EC
:10064000439880E090E0F6CF8091240290912502BB
:10065000892B49F4459A479A81E090E090932502CE
:100660008093240208954598479880E090E0F6CF63
:100670008091220290912302892B59F4459A479A3E
:10068000419A439A81E090E0909323028093220262
:100690000895459847984198439880E090E0F4CFBA
:1006A0000E94FA070E9450080E944F090E94E20827
:1006B0000E94F6080E940B0378940E947702FDCFF7
:1006C000809138029091390220913A0230913B0298
:1006D000820F931F0D96909329028093280208950C
:1006E0008EEE92E00E945E088EEE92E00E94570825
:1006F000089580E090E00E945E0880E090E00E9413
:1007000057080895262F372F281739070CF401971B
:10071000821793070CF4019608950E94DB088091DC
:10072000320290913302892BB9F00E947903109222
:10073000330210923202089581E090E00E94EE08A8
:1007400081E090E0909333028093320280913202F4
:1007500090913302892B49F78091380290913902A8
:100760004A9754F780913A0290913B024A9724F7B6
:1007700020913A0230913B028091380290913902E7
:1007800028173907F9F020913A0230913B02809105
:1007900038029091390282179307ECF020913802C9
:1007A0003091390280913A0290913B02821793076F
:1007B0006CF681E796E00E9457088FE794E00E946C
:1007C0005E08C4CF8EE794E00E945E088EE794E056
:1007D0000E945708D8CF81E796E00E945E088FE715
:1007E00094E00E945708DACF0E94DB088091320221
:1007F00090913302892B81F11092330210923202D0
:100800008091380290913902459744F00E9470031C
:1008100080913802909139024597C4F78091320255
:1008200090913302892B09F470C00E9479031092D1
:10083000330210923202089581E090E00E94EE08A7
:1008400081E090E0909333028093320280913202F3
:1008500090913302892B81F6809138029091390270
:100860004A9754F780913A0290913B024A9724F7B5
:1008700020913A0230913B028091380290913902E6
:1008800028173907F9F020913A0230913B02809104
:1008900038029091390282179307ECF020913802C8
:1008A0003091390280913A0290913B02821793076E
:1008B0006CF681E796E00E9457088FE794E00E946B
:1008C0005E08C4CF8EE794E00E945E088EE794E055
:1008D0000E945708D8CF81E796E00E945E088FE714
:1008E00094E00E945708DACF81E090E00E94EE0881
:1008F00081E090E090933302809332028091320243
:1009000090913302892B09F090CF80913802909119
:1009100039024A974CF780913A0290913B024A97EC
:100920001CF720913A0230913B028091380290915D
:10093000390228173907F9F020913A0230913B0229
:10094000809138029091390282179307ECF0209140
:1009500038023091390280913A0290913B0282171D
:10096000930764F681E796E00E9457088FE794E0CA
:100970000E945E08C3CF8EE794E00E945E088EE777
:1009800094E00E945708D8CF81E796E00E945E0865
:100990008FE794E00E945708DACF0E94D408809134
:1009A000320290913302892B09F445C00E94DB0882
:1009B0008091380290913902409774F080913A0208
:1009C00090913B02409744F00E947003809138025E
:1009D00090913902409794F70E9479031092330264
:1009E00010923202089520913A0230913B02809198
:1009F00038029091390228173907A1F120913A0263
:100A000030913B02809138029091390228173907C2
:100A100094F1209138023091390280913A029091FC
:100A20003B022817390784F18091320290913302FA
:100A3000892B09F0BBCF80913A0290913B028497B9
:100A400094F28091380290913902849764F281E0A7
:100A500090E00E94EE0881E090E090933302809352
:100A60003202E2CF8EE794E00E945E088EE794E0C7
:100A70000E945708C3CF85E495E00E945E088FE787
:100A800094E00E945708C5CF85E495E00E9457087E
:100A90008FE794E00E945E08C7CF0E9410030E9477
:100AA000BE080E94B50880912C0290912D02843DD1
:100AB000974148F40E94700380912C0290912D027E
:100AC000843D9741B8F30E94B5080E946508809163
:100AD0002C0290912D028E32994048F40E947003AE
:100AE00080912C0290912D028E329940B8F30E9491
:100AF00065080E94B50880912C0290912D028C37D8
:100B0000954148F40E94700380912C0290912D022F
:100B10008C379541B8F30E9465080E94B508809112
:100B20002C0290912D028E32994048F40E9470035D
:100B300080912C0290912D028E329940B8F30E9440
:100B400065080E94B5080E94700380913802909158
:100B50003902409744F00E947003809138029091CE
:100B600039024097C4F70E9479030E94C90881E0C6
:100B700090E00E94EE080E94100308950E94240352
:100B80000E94BE080E94B50880912C0290912D020F
:100B9000843D974148F40E94700380912C0290910B
:100BA0002D02843D9741B8F30E94B5080E94770852
:100BB00080912C0290912D028A3C984048F40E942A
:100BC000700380912C0290912D028A3C9840B8F3DA
:100BD0000E9477080E94B50880912C0290912D0206
:100BE000843B944148F40E94700380912C029091C0
:100BF0002D02843B9441B8F30E9477080E94B50807
:100C000080912C0290912D028A3C984048F40E94D9
:100C1000700380912C0290912D028A3C9840B8F389
:100C20000E9477080E94C9080E94700380913802D0
:100C3000909139020F974CF00E94790381E090E087
:100C40000E94EE080E94240308950E947903F4CFC5
:100C50000E9424030E94BE080E94B5080E947708E3
:100C600080912C0290912D028C3F984048F40E9474
:100C7000700380912C0290912D028C3F9840B8F324
:100C80000E9477080E94C9080E94240381E090E036
:100C90000E94EE0808950E9410030E94BE080E9460
:100CA000B5080E94650880912C0290912D028C3F1E
:100CB000984048F40E94700380912C0290912D027C
:100CC0008C3F9840B8F30E9465080E94C9080E94B2
:100CD000100381E090E00E94EE0808950E94100346
:100CE0000E94BE080E94B5080E94DB0880912C0279
:100CF00090912D028C349D4148F40E9470038091A4
:100D00002C0290912D028C349D41B8F30E94B508BD
:100D10000E94650880912C0290912D02883F91419C
:100D200048F40E94700380912C0290912D02883F1C
:100D30009141B8F30E9465080E94C9080E941003FF
:100D40000E94D40880913A0290913B02409744F06F
:100D50000E94700380913A0290913B024097C4F741
:100D60000E947903109233021092320281E090E0E7
:100D70000E94EE0808950E9424030E94BE080E946B
:100D8000B5080E94770880912C0290912D02883F2F
:100D9000914148F40E94700380912C0290912D02A1
:100DA000883F9141B8F30E9477080E94C9080E94C9
:100DB00024030E947903109233021092320281E0E0
:100DC00090E00E94EE0808950E94D4080E94BE0898
:100DD00080912C0290912D02883E934048F40E940D
:100DE000700380912C0290912D02883E9340B8F3BD
:100DF0000E9479030E94C9080E94DB080BC0209161
:100E000038023091390280913A0290913B022817C2
:100E10003907FCF0209138023091390280913A0272
:100E200090913B0228173907E9F020913802309160
:100E3000390280913A0290913B0282179307FCF6A7
:100E400088EB9BE00E945E0880E090E00E945708DB
:100E5000D6CF88EB9BE00E94570880E090E00E948C
:100E60005E08D8CF0E94790308950E94D40880912B
:100E7000380290913902499774F480913A02909126
:100E80003B02499744F40E9470038091380290918C
:100E90003902499794F30E9479030E94DB080E946B
:100EA000B5080E94BE0880912C0290912D02883EC8
:100EB000934048F40E94700380912C0290912D027F
:100EC000883E9340B8F30E94C9080E9479030895B0
:100ED0000E94DB088091380290913902449744F4D3
:100EE0000E94700380913802909139024497C4F3B4
:100EF0000E94790308950E94DB0880913A02909144
:100F00003B02449744F40E94700380913A0290910E
:100F10003B024497C4F30E94790308950E94DB08C2
:100F20000E94BE080E94B50880912C0290912D026B
:100F30008E379D4148F40E94700380912C0290915D
:100F40002D028E379D41B8F30E9479030E94C90893
:100F500008950E94DB080E94BE080E94B508809197
:100F60002C0290912D028A3E9B4048F40E9470030F
:100F700080912C0290912D028A3E9B40B8F30E94F2
:100F800079030E94C90808950E94D4080E94BE08EF
:100F90000E94B50880912C0290912D028A3E9B40C0
:100FA00048F40E94700380912C0290912D028A3E99
:100FB0009B40B8F30E9479030E94C9080E94DB0895
:100FC00008950E94DB080E94BE0880912C02909137
:100FD0002D028C33934748F40E94700380912C02B9
:100FE00090912D028C339347B8F30E94C9080E9458
:100FF000790308955098589AE89AE9E6F0E08081DC
:1010000081608083789408951F920F920FB60F929B
:10101000112402C00E943803489BFCCF0E94790330
:101020000E9438034899FACFF5CF6B9AE1E0F1E0DE
:101030008081886080839D9A80818061808373989D
:10104000E2E0F1E08081877F8083A59A80818F7EB6
:10105000808308951092900082E080939100109216
:10106000A0008093A100089582E8809390008AE117
:101070008093910081E090E0909399008093980094
:101080007894089582E88093A0008AE18093A1007B
:1010900081E090E09093A9008093A800789408954F
:1010A0000E9442080E9434080E9415080895282FC3
:1010B000392F30939700209396000895282F392FC9
:1010C0003093A7002093A60008958091300290915C
:1010D0003102892B41F4A59881E090E09093310290
:1010E000809330020895A59A80E090E0F7CF809138
:1010F0002E0290912F02892B61F4E2E0F1E08081D1
:101100008061808381E090E090932F0280932E0293
:101110000895E2E0F1E080818F7E808380E090E0BE
:10112000F3CF8F938FB78F939F9380912C029091E1
:101130002D02019690932D0280932C029F918F9106
:101140008FBF8F9118958F938FB78F939F938091B7
:101150002A0290912B02019690932B0280932A02EF
:101160009F918F918FBF8F91189510922D021092A1
:101170002C0210922B0210922A020895E2E7F0E06E
:10118000808181608083E1E7F0E0808181608083FD
:101190000895E2E7F0E080818E7F8083E1E7F0E070
:1011A00080818E7F80830895A598E2E0F1E08081C0
:1011B000806180830895A59AE2E0F1E080818F7ECE
:1011C000808308951092CD0087E68093CC0088E953
:1011D0008093C90086E08093CA000895E8ECF0E0AF
:1011E000908195FFFDCF8093CE0008958091C80037
:1011F000882344F4AEECB0E0E8ECF0E08C91808120
:101200008823E4F308951F921FB61F9211248F9331
:101210009F938091CE0090E09093350280933402AA
:101220008F3F910531F09F918F911F901FBE1F90AE
:10123000189581E090E09093330280933202F3CFCF
:101240008BE2809320018AE58093210181E28093E3
:1012500073008FEF9FEF909329018093280184E121
:1012600090E090932B0180932A0190932D0180931D
:101270002C0178940895EAE0F1E080818061808318
:10128000808180628083ABE0B1E08C918F7E8C9313
:101290008C918F7D8C9380818D7F808308950E94B7
:1012A0003B090E94200908958F938FB78F938BB7C6
:1012B0008F93EF93FF93E1E2F1E08081806480837C
:1012C000FF91EF918F918BBF8F918FBF8F91189569
:1012D0000F920FB60F921F9211242F932BB72F93BB
:1012E0003F936F937F938F939F93AF93BF93EF93AE
:1012F000FF938091210186FF1EC08091260190916D
:10130000270190933D0280933C02E1E2F1E080816D
:101310008F7B8083FF91EF91BF91AF919F918F91D0
:101320007F916F913F912F912BBF2F911F900F9025
:101330000FBE0F90189520912601309127018091C2
:101340003C0290913D02281B390BA9E0BCE80E94A9
:10135000F7090024880F991F001C880F991F001C93
:10136000892F902D2091360230913702232BC9F41A
:1013700090933B0280933A0280913602909137021B
:10138000892BA1F481E090E090933702809336029C
:10139000E0E2F1E08081877F8083808180628083CA
:1013A000B9CF9093390280933802E6CF109237027A
:1013B00010923602E0E2F1E080818F7D80838081AF
:1013C00088608083A7CF97FB072E16F4009407D080
:1013D00077FD09D00E94060A07FC05D03EF49095DF
:1013E00081959F4F0895709561957F4F0895A29FB5
:1013F000B001B39FC001A39F700D811D1124911DE9
:10140000B29F700D811D1124911D0895AA1BBB1B55
:1014100051E107C0AA1FBB1FA617B70710F0A61BF4
:10142000B70B881F991F5A95A9F780959095BC0115
:08143000CD010895F894FFCFEF
:1014380040777C395E79713D74060E38373F7331D9
:101448006D783E003F065B4F666D7D077F6F0067D6
:02145800000092
:00000001FF
